:020000041000EA
:4000000000400208230100100D00000085010010000000000000000000000000000000000000000000000000000000008101001000000000000000008101001081010010E9
:400040008101001081010010810100108101001081010010810100108101001081010010810100108101001081010010810100108101001081010010810100108101001060
:400080008101001081010010810100108101001081010010810100108101001081010010810100108101001081010010810100108101001081010010810100108101001020
:4000C00010B5064C2378002B07D1054B002B02D0044800E000BF0123237010BD3C06000800000000A0230010084B10B5002B03D00749084800E000BF07480368002B00D167
:4001000010BD064B002BFBD09847F9E70000000040060008A0230010E8000008000000007047FFF7FDFF72B60F4C104DAC4209DA21686268A368043B02DBC858D050FAE7E6
:400140000C34F3E70A490B4A0020521A02DD043A8850FCDC084809490860BFF34F8F00F005F900F01DF8FEE7A4230010BC2300103C060008140800080000000808ED00E0E1
:40018000FEE7FEE700B504207146084202D0EFF3098001E0EFF30880043001F09DFAFEE710B562B6014800F067F9FEE70000081010B5002001F00EF810BDC04670B5624980
:4001C000E0239B00CB580F2213401A00D0329200525807210A40032A05D0042A06D0002A12D15A4814E05A4A106811E01A00C0329200554952581F210A40112A06D0132A7C
:4002000004D0FA20C00103E0524801E080200002002B36D14C4BB222D2009A5801211140B125ED005A59120F032422405B591B0F1C4207D0444C63591B0F03242340012BDC
:4002400002D102E0012300E00023002B01D0002901D1032A4BD13C4BB022D2009D58AD03AD0B3D495958C904C90C9C58240E01231C40013401F038FD6843210001F034FD12
:4002800035E0012B33D1304BC822D2009A5801251540C024E4001A59120F03210A401B591B0F194207D028490B591B0F03210B40012B02D102E0012300E00023002B01D049
:4002C000002D01D1032A12D11F4DC022D200AB587F210B40A958090A1F263140AC58240C3440584301F000FD210001F0FDFCE0239B00154AD3581B0903221340D840144C9F
:400300006060164B1D692D0AFC32154001351969090E013101F0E8FCA060290001F0E4FC0500E06020610E4BC0180E4901F0DCFC20750D4BE818FA21890001F0D5FCA06121
:40034000C003E06170BDC0460000264000127A00C000000800366E0184050000000021403F420F0040420F00E703000010B5284801F0B4FC274CB022D200A3585B005B084C
:40038000A350E0218900635830208343635080235B04A350204A214BE250A02292010433E250FF221E4BE25001F086FCC0225200A35801218B43A35000F010FAFFF7FEFE54
:4003C000B0235B055B78002B04D0B0235B055B78DBB200E02123212B03D1124B0022DA605A60114C22008021042000F099FC2000103000F02DFD0D4B1A685123D35C002BC3
:4004000002D00B4800F09AFD00F062FB10BDC046E82200100000264001000200840500008C050000E00023405806000810080008501E00108023024AD358032018407047C0
:400440000000214010B501F0D8F9084980228C58074B2340074C23438B508823034AD358DB06FAD501F0CDF910BDC04600002140FCFF00000100FA0570B50500830504D035
:40048000E821FF310F4801F0F9F801F0B6F90400FFF7D0FF032801D1FFF7D4FF0A4AB0239B00D55080215058084B03400848034353508823044AD358DB06FAD5200001F0B7
:4004C000A0F970BD841E001000002140FCFF00000300FA05FEE7C0460323094A1360094A136080225201084B1A6080221206074B1A600122064B1A60064A074B1A60704780
:4005000008203140102031409402364000001D4100031D4101001180000E1F4130B587B09D49A022D2008B58032083438B509B4A116808688823CB58C31818689849084059
:4005400018601368186884241B59C01803681B021B0A80256D042B430360106805680359EB1818680140196013683E229A5C002A06D08948E02189004258753CA243425014
:400580003E229A5C002A06D08348E021890042583024A24342503E229B5C002B07D07E49E02292008B588020000603438B500021012000F041FE0021022000F03DFE0021CD
:4005C000032000F039FE0021042000F035FE0021002000F031FE01A8724903000A0032CA32C312CA12C300F055FE002802D00420FFF770FF68496C4A8B58802000060343DA
:400600008B506A4800F000FF002802D00420FFF761FF614C664BE158664A0A40E250E158654A0A40E250E25880252D062A43E250043BE158614A0A40E250E158604A0A4026
:40064000802189010A43E250E258802109020A43E2505C4A11685C4B0B40802149000B431360002001F00AFB584BE2581543E550E158012291430A43E2506421002001F0EA
:4006800043F8464B1B683F229A5C052A06D970229A5C01210A404E49986842509A6874215B5AD21851683E4B0B408C2189010B4353603A4B1B6873229A5C03219140702254
:4006C0009A5C7220185C140084402143012002400A43802109060A438021C900986842509A6852583F229A5C332A03D90021394A986881509A6874215B5AD2181168284B46
:400700000B40FE2109020B431360244B1B687322995C703A8A40110070229A5C7220185C82400A43802109060A438021C900986842509A6852583F229A5C392A06D9702215
:400740009A5C02210A402449986842509A6874215B5AD2189168124B0B40C42189010B4393600E4B1A687323D35C032199407023D35C7220105C1C0084402143022003408A
:400780000B43802109060B438021C9009068435093685B5807B030BD0000264010080008FF00FFFF9C1E0010087F0000400D030004050000FEFCFFFFFFFF00FFFFF0FFFF97
:4007C000FF8FFFFF00002740FFFCFFFF0C050000140C0000CC0C0000E40C0000F0B58BB09621002000F090FF00F066FF002814D100F052FFC0235B004E4AD358DB0705D47F
:4008000011004D4A8B585B005B088B5049494A4A8B588020000603438B50012001F0C6F9464A516C464B0B40E82189010B435364536C1B0AFF2213403A2B07D13F4A516C57
:40084000404B0B40E82189010B435364FFF766FE01AC3D4D22002B00143343CB43C243CB43C243CB43C22100384800F039F924220021200001F0C4FA012601962100344858
:4008800000F02EF922002B00383383CB83C283CB83C283CB83C221002E4800F021F922002B005C3323CB23C223CB23C223CB23C22100294800F014F924220021200001F0B3
:4008C0009FFA062301932100244800F009F9244D23002A0083CA83C383CA83C383CA83C32100204800F0FCF824220021200001F087FA4023019321001B4800F0F1F82422AC
:400900000021200001F07CFA01962100174800F0E7F822002B00243323CB23C223CB23C223CB23C22100124800F0DAF8FFF7D4FD0BB0F0BD000026400C05000000002740C2
:40094000FF00FFFFFFC5FFDF9C1E001000003240800032408002324000033240800332401C1F001000043240800432400005324080053240214B984230D00ED8402831D092
:4009800004D800281FD010282AD031E080282BD080235B00984229D02AE0194B984229D007D8A0231B0698420DD0164B984212D01EE0154B98420AD0144B984209D0144B32
:4009C000984215D101E0002016E0124814E0124812E0124810E0A020C0030DE007480BE00F4809E00F4807E00F4805E0034803E00E4801E0A420C0037047C04606005200F7
:400A0000010000F0090000A0040000F0050000F0030000F0010052000200520003005200010050000200500005005200FF00520070B5124B1A683123D35C002B04D1C4218D
:400A4000FF310F4800F01AFE0C4B1D682C00B423EB582A6A944663441B68002B0BDB094B1868FFF787FF6B6801229A6063689B68002BFBD100E0044870BDC0461008000898
:400A8000641F0010E80700080200500010B50D4B1861002805D002230370FD33437000234380094B1B6850229A5C002A08D051229B5C002B04D04F3A0449002000F0F8FAE4
:400AC00010BDC046E8070008100800086101000810B502481430FFF7D9FF10BDE807000870B505000C0000285DD000295DD0FF230A689A4303D099212D4800F0BFFDFF239B
:400B000022699A4303D09A21294800F0B7FDA3685B0D03D09B21264800F0B0FD63685B0A03D09C21224800F0A9FDE3695B0F03D09D211F4800F0A2FD236A5B0F03D09E2117
:400B40001B4800F09BFD1B4A11688B69EB1ADB0949691B01CB18216829607D211068415C6918E06808607E211068415C6918206908607F211068415C6918606908607C21FE
:400B80001068415C6918A06808606168A961116880228A5CAD18A2692A60E2691A60226A5A60002002E0044800E0034870BDC046A41F00101008000801005A0070B50400D3
:400BC0000D000A4B1A68B423D3581B181B68002B0ADA0B0C03D00649064800F04FFD2D042D0C6560002000E0034870BD10080008D50200002420001001008A0070B50500E0
:400C00000C000368002B01DA002300E0084B002B0BD1EA60230C03D00649074800F02EFD2404240CAC60002000E0014870BDC04601008A00BB0200002420001070B505002F
:400C40000C1E03D19921084800F018FD074B1A68B423D3585B191B68002B03DAEB682360002000E0024870BD642000101008000801008A0070B504000D00234B1A6831238C
:400C8000D35C834236D9002936D00B68DB0635D13123D35C984204D3C421FF311B4800F0EDFC194B1B681A6AB0215B5A5C431419174E34602B68DA080021686801F0A0F87E
:400CC00000212000FFF77AFF3468002D03D111490E4800F0D3FC2A0000212000FFF78EFF00280DD10A4B18680021FFF767FF002808D108E0084806E0074804E0064802E070
:400D0000064800E0054870BD1008000824200010000800089303000003018A0001018A0010B50400002A17D1002915D1124B1A683123D35C984204D3C421FF310F4800F07E
:400D40009DFC0D4B1B681A6AB0215B5A5C4314190B4B1C6000200EE0002A09D0002909D0074B59609A60191D2000FFF783FF02E0044800E0034810BD1008000824200010D7
:400D80000008000803018A00F0B583B00D001C4B1B68DC68236883422DD947097B01C01A012383401E00002903D100F026FD019001E000230193124B18680368002B01DAFA
:400DC000002300E00F4B002B0ED16368BF00DF193B68334203D0B3433B60002400E00A4C0021FFF7EBFE00E0084C002D04D1019800F007FD00E0064C200003B0F0BDC046B9
:400E00000008000801008A00020188000301880004018A000A4B1B68DA68136883420BD943095901401A0121814052689B009B580B4203D0034802E0034800E0034870478E
:400E4000000800080101880004018A0000018800034B1B68002B01D1014B18607047C0460C080008F0B5474680B404000F0090461E002D4B1B68002B03D1B5212B4800F0B5
:400E8000FDFB294B1B682C2060431C18FF22150035402560330A13406360360CA660244B1A683123D35C9D4204D3C421FF31214800F0E4FB1E4B1A68B023D35A6B43116ACA
:400EC0008C466344236166683223D35C9E4204D3E021FF31174800F0D1FB154B1B681D6A80367601AD196561A668330C04D0FF214900104800F0C2FB330C03D00E490D4830
:400F000000F0BCFB3604330C1E43AE604346E36127620023A361069B002B02D000229B5EA38104BC9046F0BD0C080008A42000101008000824200010FF010000F0B58FB03D
:400F4000041E03D15221294800F098FB6368032B03D95421254800F091FBE36A002B03D15821224800F08AFB236B002B03D159211E4800F083FB07AA1300210061C961C32F
:400F800021C921C302AD290023001433C1CBC1C141CB41C10821535E0CAE3380144B1B6836215B5E07998C466344B370089B0D930B9B0A980096A26AE16AFFF753FF2B693C
:400FC000E868002200920021FFF74CFF216B300000F0E6FA0023F25E002A05DB1F231A401E3B9340034A13600FB0F0BDA42000101008000800E100E0F8B505000F00160002
:401000001C00002A03D1FD21224800F037FB224B1B68002B03D1FE211E4800F02FFB1E4B1B682C2128004843181879435918012213004D68AB401B044568AA401500026909
:40104000002A20D08F69002F1FD11268002A01DA002200E0114A002A19D132681204120C134333600369DE6001238B614C6204692B0C03D00A490B4800F000FB2A04120CDC
:40108000A260002004E0084802E0084800E00748F8BDC046A42000100C08000801008A00BB0200002420001004028A0007028A0070B504000D0016000F4B1B68002B04D1E6
:4010C000AF2149000D4800F0D9FA0B4B1B682C2060431C18236A002B04D1B1214900074800F0CCFAE369B34204D9236AB6009D51002000E0024870BD0C080008A420001060
:401100000A028A0070B582B0040000230193002804D1D221FF312D4800F0B0FA2369002B04D1E9214900294800F0A8FA6369002B04D1D421FF31254800F0A0FA236A002B56
:4011400004D1EA214900214800F098FA6269D5682B0C24D01B041360136820691C4B1A68B423D358C3181B68002B18DA01A9FFF765FD00280ED1019803681E0CFF22134081
:40118000E269934207D29B00226AD358002B02D0984700E0002631002069FFF70FFD2D042D0C0FD063691D601B68636A002B03D098470023636203E0A36A002B00D09847D5
:4011C0000023A36163691B6802B070BDA42000101008000810B50400084B1B68002B04D1B221FF31064800F049FA044B1B682C2060431818FFF786FF10BDC0460C08000828
:40120000A420001010B50400094B1B689B6CC340DB0703D4BE21074800F030FA044B1B681B691034A402E3580F20184010BDC04610080008E4200010134B1A683C23D35CB8
:4012400083421DD9042904D94B1EFF3B9BB2132B18D8FF290CD91F2319400C4A0300C0339B009950D03080000423835000200AE007231940D0308000044BC150002002E02A
:40128000034800E002487047100800080000264001004A0070B5041E03D14A494A4800F0EDF9B023DB00494AD358002B00DA87E0474B22689A4203D94649434800F0DEF98E
:4012C00023689B039B0BE279002A02D08022520400E000221343B022D2003C498B50A2883D4B9A4204D984218900374800F0C6F92289344B9A4203D93849334800F0BEF928
:40130000A388DB04D90C23891B04354A13400B43344A2E498B50A37A0F2B04D986218900294800F0ABF9E37A0F2B03D92E49264800F0A4F9A289284B9A4203D92B49224881
:4013400000F09CF9A37A0F211940E27A1201FF2313400B43A289120225490A401343A27B1207C02189050A401343B122D20017498B50A379042B03D91E49134800F07EF94E
:40138000228A104B9A4204D9892189000E4800F075F90E4818494558184B1D40A3791B02E022D20013402B4343504558144B1D40238A1B040A4A13402B434350002000E044
:4013C000104870BDFF0100002421001000002640FFFF030009020000FF1F0000110200000000FF0184050000190200001A02000000FF1F00230200008C050000FFF8FFFFE7
:40140000FFFF00FE03004A0070B505003149324A8B588020000603438B502C0003E0012000F020F9013CB223DB002A4AD3585B0701D4002CF3D12749B122D2008858274B46
:4014400003408020800503438B50002D01D0002C0CD02049B022D2008B588020000603438B5003E0012000F0FDF8013CB223DB00184AD358DB0701D4002CF3D1002D01D01E
:40148000002C08D01349B122D2008B58C020800503438B5013E00F4BB121C90058580F4A02408020800502435A5008395A58520052085A5008495A58520052085A50002DA8
:4014C00003D0002C03D0002002E0002000E0044870BDC046000026408C050000FFFFFFCF02004A0070B505000C001A4B1B6828229A5C012A15D1820807211000884327D196
:401500009200AD1AED00FF20A8401B6820339A181168AC4023004B40184004004C40146016E03A229B5EDBB2994203D176210A4800F0A4F8074B1B681B68072215408022F3
:40154000120615438022920194466444A400E55070BDC04610080008AC21001070B504000D000B4B9A680B4B9A420CD1002904D13821FF31084800F081F81034054BA40026
:40158000E058E55003E01034A400044BE05870BD00ED00E000000008AC21001000000010F0B5474680B482B0061E01914AD04368032B03D93221264800F060F80023F05EE6
:4015C000002804DBB178FFF78DFF002400E0214C0023F15E7368002912DB88081E4FC0308000C55903221140C900FC3290468A4095439A01434613408B402B43C35116E03B
:4016000089B20F220A40083A92080632920013481018476803221140C900FF252A008A4097439A012B0013408B403B4343600B4B9A680B4B9A4206D10023F05E0199FFF784
:401640008DFF00E0034C200002B004BC9046F0BDAC2100100100560000E100E000ED00E00000000810B5034B1B78584300F0BCF810BDC046D400000801BEFEE770B50D0066
:40168000044C18220100200000F0C2FBA5610020FFF7F2FF00060008054B802212069A649B6C002B01DB002000E002487047C0460000274003004600054B802212019858F5
:4016C0005B68FF221A4202D08023DB021843704700002640FEE7C04610B50A4B0268DA6142681A6282685A62C2689A620269DA6242691A6382695A63C2699A63FFF7EAFFC6
:4017000010BDC04600060008F0B5474680B4002801D0192300E064238B429B415B42304D2C682268A826A45BA41822680327BA433B401A4322602C682268A45BA2181668FC
:40174000284CA046264016602C682668AA229446A25A96193268BA43134333602A6813686546525BD3181A68444614401C60002805D010291BD921291BD8012024E0184B25
:401780001B6855229A5C914215D956229A5C914213D957229A5C914211D958229A5C91420FD959229B5C99420DD804200CE000200AE0022008E0002006E0012004E0022071
:4017C00002E0032000E00520054A1268526813680F218B430343136004BC9046F0BDC04610080008FFFCFFFF0230800803D001300238FCD1C046C0467047EFF3108072B6A6
:40180000704780F31088704710B5B0235B059B899BB2002B04D0B0235B059B899BB201E080235B0080225200934215D1184C23681968683A9B58C9180B680F208343963A77
:4018400013430B6021680C689C23CB58E318196881430A431A6019E00D4C2368196898229B58C918B02040050A4BC2580A4B13400A681343C022920013430B6022681168A9
:401880009C23D358CB18054A82581A6010BDC0461008000848180000FFFCFFFF4418000030B5B0235B059B899BB2002B04D0B0235B059B899BB201E080235B008022520011
:4018C000934215D1184C23681968683A9B58C9180B680F208343953A13430B6021680C689C23CB58E318196881430A431A6019E00D4D2B68196898229B58C918B024640537
:40190000C12040012258094B13400A681343C022920013430B602A6811689C23D358CB1822581A6030BDC04610080008FFFCFFFFB0235B059B899BB2002B04D0B0235B05B9
:401940009B899BB201E080235B008022520093420DD1104B1B681A6898215B58D21811680D4B0B40C021C9010B43136011E0094B1B68196898229B58C918084BB0225205DF
:40198000D258074B13400A681343C022920013430B60704710080008FF8FFFFF18180000FFFCFFFF30B5B0235B059B899BB2002B04D0B0235B059B899BB201E080235B00C4
:4019C0008022520093420DD1134B1B681A6898215B58D2181168114B0B408021C9010B43136018E00C4D2B68196898229B58C918B02464050A4822580A4B13400A681343CF
:401A0000C022920013430B602A6811689C23D358CB1822581A6030BD10080008FF8FFFFF4C180000FFFCFFFF10B5B0235B059B899BB2002B04D0B0235B059B899BB201E0C2
:401A400080235B0080225200934217D10020FFF7D9FBB0235B055B78002B04D0B0235B055B78DBB200E02123222B03D8002803D1013004E0012002E0002000E0012010BDE7
:401A8000F8B50700012803D93D493E48FFF7F6FDB0235B055B78002B04D0B0235B055B78DBB200E021239DB2B0235B059B899BB2002B04D0B0235B059E89B6B201E0802681
:401AC00076000020FFF79EFB002814D180235B009E4212D1222D12D82B4B1B685C682B4821582B4B19403B068022520413400B432350002404E0274C02E0264C00E0254CD5
:401B000080235B009E4201D1222D03D880235B009E4232D01C4B1A683123D35C002B04D1C421FF311C48FFF7A9FD174B1B681D6A80235B009E4203D1002F05D0174A06E001
:401B4000002F03D0164A02E0164A00E0164A01212800FFF753F800280FD10B4B1A68B423D3585B191B68002BF7DBEB681B0E1B06A0221206934200D100242000F8BDC04604
:401B80004C0A0000F02100101008000818F00000FFFFFFFE04004200641F0010010100300300000C010000300100000CF8B50500012804D9822109012948FFF75FFDFFF715
:401BC00033FF002849D0FFF718FE0700002D11D10021244B244AD150E823DB00B0225205D65CF6B20120FFF74BFF041E19D1FFF70BFE16E0B02252051C4BD0581A4B194967
:401C000058501B49565CF6B21A481A581F218A4314390A431A500320FFF724FDFFF7C2FE0024002C15D11049124A8B581F20834306401E438E50002D02D1FFF779FE08E0BC
:401C40000720FFF70FFDFFF72BFE0020FFF718FF04003800FFF7D5FD00E0074C2000F8BDF0210010307F00000000264010180000410700001CFF000003004200042805D1DB
:401C80000B4A116804230B4313600FE0094B1A681168A023D358CB180006C022920410401860034A136804218B4313607047C04610E000E0100800080749C02252008B58D7
:401CC0009B009B088020C00503438B508B588020000603438B50704700002640014B18607047C04610080008002243088B4274D303098B425FD3030A8B4244D3030B8B4260
:401D000028D3030C8B420DD3FF22090212BA030C8B4202D31212090265D0030B8B4219D300E0090AC30B8B4201D3CB03C01A5241830B8B4201D38B03C01A5241430B8B4236
:401D400001D34B03C01A5241030B8B4201D30B03C01A5241C30A8B4201D3CB02C01A5241830A8B4201D38B02C01A5241430A8B4201D34B02C01A5241030A8B4201D30B0277
:401D8000C01A5241CDD2C3098B4201D3CB01C01A524183098B4201D38B01C01A524143098B4201D34B01C01A524103098B4201D30B01C01A5241C3088B4201D3CB00C01A6E
:401DC000524183088B4201D38B00C01A524143088B4201D34B00C01A5241411A00D20146524110467047FFE701B5002000F006F802BDC0460029F7D076E770477047C04644
:401E000003008218934202D019700133FAE77047030030B5002A0DD00C7801335D1E013A2C700131002CF5D19A189A4202D01C700133FAE730BD0000F8B5C046F8BC08BCD3
:401E40009E467047F8B5C046F8BC08BC9E4670470300000001000000010000000000000005036000040000000100000000000000010000000604600008000000C807000845
:401E8000B101001073797374656D5F70736F63365F636D30706C75732E630000F4010000140004010A000905080000006301000008000000000000000000000000600000C3
:401EC0000000000000000000000000000000000000000000030000000000000000000000680000000000000000000000000000001212000000000000000000000000000053
:401F000000000000000000BA0000000000000000000000000000000000001D1D0600000000000000000000000000000000000000000000000000000000040400000000009F
:401F400002000000000000000000000060000000000000000000000000000000000000000000000047656E6572617465645F536F757263655C50536F43365C70646C5C645D
:401F80007269766572732F7065726970686572616C2F6970632F63795F6970635F6472762E68000047656E6572617465645F536F757263655C50536F43365C70646C5C6437
:401FC0007269766572735C7065726970686572616C5C6770696F5C63795F6770696F2E630000000047656E6572617465645F536F757263655C50536F43365C70646C5C643A
:402000007269766572735C7065726970686572616C5C6770696F5C63795F6770696F2E680000000047656E6572617465645F536F757263655C50536F43365C70646C5C64F4
:402040007269766572735C7065726970686572616C5C6970635C63795F6970635F6472762E68000047656E6572617465645F536F757263655C50536F43365C70646C5C64EF
:402080007269766572735C7065726970686572616C5C6970635C63795F6970635F6472762E63000047656E6572617465645F536F757263655C50536F43365C70646C5C64B4
:4020C0007269766572735C7065726970686572616C5C6970635C63795F6970635F706970652E630047656E6572617465645F536F757263655C50536F43365C70646C5C6412
:402100007269766572735C7065726970686572616C5C70726F745C63795F70726F742E630000000047656E6572617465645F536F757263655C50536F43365C70646C5C64CC
:402140007269766572735C7065726970686572616C5C737973636C6B5C63795F737973636C6B2E630000000047656E6572617465645F536F757263655C50536F43365C7074
:40218000646C5C647269766572735C7065726970686572616C5C737973636C6B5C63795F737973636C6B2E680000000047656E6572617465645F536F757263655C50536FE4
:4021C00043365C70646C5C647269766572735C7065726970686572616C5C737973696E745C63795F737973696E742E630000000047656E6572617465645F536F75726365B0
:402200005C50536F43365C70646C5C647269766572735C7065726970686572616C5C737973706D5C63795F737973706D2E6300000000204000002440000000400000000038
:4022400000002340000030400000314000009F40000022400000104002020202020202020210101D800017007500FF030602063604102000000000007FC000000004000071
:40228000000000000019324B647D00804000080B100000000000FF012002001F00800004FF081018001000140018001C4044484C50000000081000000800000004000000EC
:4022C000041000000012000004210000002100000016000040114002C41300138013A013200000001C0000000000214000002540000001400000344000002440000031400D
:402300000000324000001F410000234000001140010101010101010101101010800019005500F0000501053B04101C01010000000FC000000004000001010101011D3A5702
:40234000789600082000101208000000001F00000010000F002000023F06080E00080009000A000B24282C3034000000100000009000000088000000080000008000000090
:4023800004F0000000F00000400200002005A000D00100018001A0012000000010000000000000000000001000000008C0000000C4230010C0000008400500003C060008E8
:4023C000D80100000048E80100127A0000093D0000093D0000093D0004000000A00F00000000D007E9000010C10000100000000010B50004400B27D0144B1A68146AB023E4
:40240000D15ACA00531AE3181B68002BF4DA3E220F4B1A600F4A104B1A60104B0621A322D20099500E4A98509B58084B1A68106AB023D15ACA00531AC31800225A60084B9E
:40244000064AD358002BFADA10BDC04610080008040126401E1F000008012640000026401C05000010B54378FF2B20D100F01AFA04000F4B1A683123D35C042B04D8C4215F
:40248000FF310C4800F006FA094B1A68116AB023D35A9B00CB18DB685A68116801230B4313601368DB07FCD4200000F013FA10BD10080008641F0010F0B585B001900291AE
:4024C000544B1A683123D35C002B04D1C421FF31514800F0DFF94F4B1B681E6AB4229A58971950229B5C002B77D000F0C3F9050003283CD1474B1A683123D35C062B04D83D
:40250000C421FF31444800F0C5F9424B1968B023CB5A5A00D21853000A6A94466344B4228A58D3181B68002B23DB002000F0DAF93A4B98421FD03A4B1A69002300210120CD
:4025400000F0B8F9002803D0364C17E0013400E00024002000F0C6F9304B984202D0324B9C42F3D9304B9C4207D92E4C06E0002404E02C4C02E02B4C00E00024002C46D137
:4025800000F090F90390294B294AD358002B13DA234A0121300000F0ADF900280ED10298FFF726FF019B002B0AD03B68002BFCDB00F088F9040004E01A4C02E0194C00E0A8
:4025C0001C4C032D05D10121002000F05BF90028F9D1039800F07EF919E000F063F905000F4A0121300000F085F9002809D1019B002B08D03B68002BFCDB00F063F90400FA
:4026000002E0084C00E00B4C280000F063F9200005B0F0BD10080008641F001001018800E807000805005200EF4902001C0500000000264001005000F0B54F464646C0B460
:40264000824B1A685468B0235B055B78002B04D0B0235B055B78DBB200E02123212B67D1B023D15ACB005B1A116A8C46634419680029F5DADD6802212943D960B023D15A59
:40268000CB005B1A116A8C466344D968C9073ED5D9680904090C8C4684271168D559A84641440968090A0904FF26360431400D0088261168894691598846C14449460968A7
:4026C000090A0906294365462943D9601168D359C9180A685E4B98461A4090252D012A430A605A4B99461A6813689C46925962441368414619400B002B4313604B461A681B
:402700001568D15969180B689359EB181B684F4B1A68B021555AEB005B1B156AAC46634400255D60156A515ACA00531AEB185B68484A116904230B431361012801D030BF90
:4027400000E020BF414B1A68B023D15ACB005B1A116A8C46634419680029F3DAB02149054978002904D0B02149054978C9B200E02121212932D1D968C90722D51068842117
:40278000525880180468324A1440DB681B0C1B02FF2109020B40234303602C4B19688823C8580B689C46604403681A400D6AB023CC5AE1000B1BEB18DB681B0E1B021A43F4
:4027C0000260224B1A68106AB023D15ACA00531AC318DA6802218A43DA6028E086235B00E358002B23D11C4807681C4BA321C9005E581B4A904615681A4A02600620585063
:402800003E21424611600631174A9950164B134AD358002BFADA154A86235B00E2500E4B1F60A323DB000D4AD6500D4B1D60074B1A68106AB023D15ACA00531AC3180022F7
:402840005A600CBC90469946F0BDC04610080008FF00FFFF00ED00E00801264000002640040126401E1F00001C050000AAAAAAAA0000000001B40248844601BC604700BF52
:402880003504001001B40248844601BC604700BF890D001001B40248844601BC604700BF7D16001001B40248844601BC604700BFFB17001001B40248844601BC604700BFB4
:4028C000F90F001001B40248844601BC604700BF310A001001B40248844601BC604700BF0318001001B40248844601BC604700BF150E001001B40248844601BC604700BF67
:40290000FD0B00100000000000000000000000000000000000000000000000000000000000000000000000000000000000000000000000000000000000000000000000007F
:402940000000000000000000000000000000000000000000000000000000000000000000000000000000000000000000000000000000000000000000000000000000000057
:402980000000000000000000000000000000000000000000000000000000000000000000000000000000000000000000000000000000000000000000000000000000000017
:4029C00000000000000000000000000000000000000000000000000000000000000000000000000000000000000000000000000000000000000000000000000000000000D7
:020000041008E2
:4000000000780408EB0208100D00000051030810510308105103081051030810000000000000000000000000000000004D0308104D030810000000004D0308104D030810DA
:400040004D0308104D0308104D0308104D0308104D0308104D0308104D0308104D0308104D0308104D0308104D0308104D0308104D0308104D0308104D0308104D03081000
:400080004D0308104D0308104D0308104D0308104D0308104D0308104D0308104D0308104D0308104D0308104D0308104D0308104D0308104D0308104D0308104D030810C0
:4000C0004D0308104D0308104D0308104D0308104D0308104D0308104D0308104D0308104D0308104D0308104D0308104D0308104D0308104D0308104D0308104D03081080
:400100004D0308104D0308104D0308104D0308104D0308104D0308104D0308104D0308104D0308104D0308104D0308104D0308104D0308104D0308104D0308104D0308103F
:400140004D0308104D0308104D0308104D0308104D0308104D0308104D0308104D0308104D0308104D0308104D0308104D0308104D0308104D0308104D0308104D030810FF
:400180004D0308104D0308104D0308104D0308104D0308104D0308104D0308104D0308104D0308104D0308104D0308104D0308104D0308104D0308104D0308104D030810BF
:4001C0004D0308104D0308104D0308104D0308104D0308104D0308104D0308104D0308104D0308104D0308104D0308104D0308104D0308104D0308104D0308104D0308107F
:400200004D0308104D0308104D0308104D0308104D0308104D0308104D0308104D0308104D0308104D0308104D0308104D0308104D0308104D0308104D0308104D0308103E
:400240004D0308104D0308104D0308104D0308104D0308104D0308104D0308104D0308104D0308104D0308104D0308104D0308104D0308104D0308104D0308104D030810FE
:400280004D0308104D0308104D03081010B5054C237833B9044B13B10448AFF300800123237010BD8449020800000000FC710810084B10B51BB108490848AFF30080084811
:4002C000036803B910BD074B002BFBD0BDE81040184700BF0000000088490208FC71081054430208000000007047FFF7FDFF72B6104C114DAC4209DA21686268A368043BB5
:40030000A2BFC858D050FAE70C34F3E70B490C4A00209142BCBF41F8040BFAE709480A490860BFF34F8F00F035FA00F00FFA00F005F9FEE700720810187208108449020856
:40034000D04004080040020808ED00E0FEE7FEE700B504207146084202D0EFF3098001E0EFF30880043000F019FFFEE710B502F05DF802F023F8002418E0012002F030F885
:40038000114B1B6803EB83039A00104B1A44536823B94FF476710E4800F0F0FE00210D4801F0FEF80C4B23F814000134B4F57A4FE3DB084C204601F0B7F8236823F000431F
:4003C0002360002010BD00BF884B0208406E08104068081000001D41D04B020800231A4604E0204931F913100A440133B3F57A4FF7DB30B41C48A0FB023242F30F301B4B15
:4004000018800022144615E0164D35F912301B1A9BB219B225F81210002901DDA14207DC002906DA4942A14203DD5B429CB200E01C460132B2F57A4FE6DB00220BE0094940
:4004400031F91230C3EBC32393FBF4F303F5006321F812300132B2F57A4FF0DB002030BC704700BFD04B0208D34D6210D03F040838B5094C02256560084804F047F9FFF7E7
:4004800075FFFFF7ABFF0122054B1A70A560054804F03CF9002038BD8005324060680810A04902087C68081010B50822124B5A60124804F02BF903F05BF800240BE0104BAD
:4004C00033F91430C3F30B030E4AC2F800317D2000F048FE0134B4F57A4FF0DB094A136823F0004313600822034B9A60064804F00DF9002010BD00BF0000324098680810B9
:40050000D04B020800001441B468081070B5094804F0FCF800240AE0074D08266E60962000F008FEAE60962000F004FE0134022CF2DD70BDD06808100000324008B562B6F9
:4005400001F0ACFF01F0EEFF144B1868002302221946406804F0E2F8114804F065F8114804F0D4F802F09AFA02F048FA0028F9D101F0EEFF002002F005F908B1FFF778FF83
:40058000012002F0FFF80028ECD0074B1B7813B1FFF78AFFE6E7FFF7B9FFE3E710430208F4680810FC680810A049020808B5012000F04CFD08BD00BF704700BF5C4AD2F81F
:4005C000803303F00F0303F1D00152F8212002F00702032A04D0042A05D092B9554914E0554A116811E003F1C002514951F8222002F01F02112A06D0132A04D04FF4FA4180
:4006000003E04E4901E04FF400418BBB484BD3F8902502F00100D3F88825C2F30172D3F8883513F0405F07D0414BD3F88835C3F30173012B02D102E0012300E0002303B1F4
:4006400008B9032A46D13A48D0F88025C2F31103D0F88425C2F30C02D0F88005C0F300600130B1FBF2F202FB03F2B2FBF0F131E0012B2FD12E4BD3F8402602F00100D3F843
:400680000026C2F30172D3F8003613F0405F07D0274BD3F80036C3F30173012B02D102E0012300E0002303B108B9032A12D12048D0F8002602F07F02D0F80036C3F30423A4
:4006C000D0F80006C0F3044002FB01F2B2FBF3F2B2FBF0F1164BD3F88033C3F3011321FA03F215494A601648D0F89030C3F3072301330069000E0130B2FBF0F08860B2FBA0
:40070000F3F3CB600B6103F5742202F23F220D48A0FB0202C2F387420A7503F2E7330A4AA2FB03239B098B61DB03CB61704700BF0000264000127A008C42020800366E01C3
:400740000000214083DE1B43D34D621008B50D4800F086FDFFF730FFFFF730FF00221146042000F03BFA084800F0CEFA074B1B6893F8513013B1064800F036FB00F0FCF836
:4007800008BD00BF0C6C0810A4490208D43F04084469081008B500F05CFD074AD2F8883043F47003C2F88830BFF34F8FBFF36F8F00F053FD08BD00BF00ED00E010B5044675
:4007C0002146034800F02CFF0028F9D010BD00BF00006640054BD3F80833C3F30803002BF8D0024BD3F84003704700BF000066401F4B98422DD00CD840282ED003D8E8B189
:40080000102828D02FE0802829D0B0F5807F28D029E0184B984228D006D8B0F1204F0DD0154B984212D01EE0144B98420AD00133984209D0023B984215D101E0002070476A
:400840000F4870470F4870470F4870474FF4A0007047074870470D4870470D4870470D487047034870470C4870474FF4A400704706005200010000F0090000A0040000F0F9
:40088000010052000200520003005200010050000200500005005200FF00520038B5124B1B6893F83130012B04D840F2C3110F4800F064FC0C4B1D682A6AB5F8B03013442F
:4008C0002C46D5F8B420D358002B0BDB084B1868FFF78EFF6B6801229A6063689B68002BFBD138BD034838BDD43F040890690810244B0208020050001A4B186128B1022392
:400900000370FF23437000234380174B1B6893F850202AB300B583B0B3F93830ADF80030002301931149684600F0CAFBBDF90030002B08DB590903F01F03012202FA03F307
:400940000B4A42F82130084B1B6893F8513023B102220849012000F0F3FA03B05DF804FB704700BF244B0208D43F0408C543020800E100E07D44020808B50248FFF7BCFF03
:4009800008BD00BF384B02082DE9F04104460D46174698469DF81860072903D9D921354800F0ECFB37F00F0303D0DA21314800F0E5FBB8F1010F03D9DB212E4800F0DEFB80
:4009C00036F01F0303D0DC212A4800F0D7FB22680123AB4022EA030308F0010808FA05F843EA08032360244B1B6893F87D100B59A8000F22824023EA020207F00F0303FA25
:400A000000F717430F51072D04D94FF422711B4800F0B4FB36F01F0304D040F28921174800F0ACFB144B1B689A69A41AE4095B6924011919032D0DD81959ED001F22AA40E4
:400A400021EA020206F01F0606FA05F515431D51BDE8F081043D4A68ED001F23AB4022EA030306F01F0606FA05F51D434D60BDE8F08100BFD0690810D43F0408106A08105E
:400A800038B50B4B1B68D3F8B4301B58002B0DDA0D4604460B0C1B0423B140F2D521054800F06CFBA9B26160002038BD024838BDD43F0408506A081001008A0038B5036885
:400AC000002B01DA002300E0094B73B90D460446C2600B0C1B0423B140F2BB21054800F04DFBA9B2A160002038BD014838BD00BF01008A00506A081038B504460D4619B9EA
:400B00009921084800F03AFB074B1B68D3F8B4301B59002B03DAE3682B60002038BD034838BD00BF906A0810D43F040801008A00254B1B6893F8313083423AD900293AD0F6
:400B40000B6813F01F0F38D170B50D4604461E4B1B6893F83130984204D340F2C3111B4800F00CFB184B1B68186AB3F8B03004FB0304174E34602A68D2080021686803F0DB
:400B8000D9F800212046FFF77BFF346825B940F293310E4800F0F2FA2A4600212046FFF78DFF60B900210A4B1868FFF769FF40B970BD08487047074870470648704706485F
:400BC00070BD054870BD00BFD43F0408506A08103C4B020803018A0001018A0010B504461346B2B9A9B9124B1B6893F83130984204D340F2C3110F4800F0C0FA0C4B1B6860
:400C00001A6AB3F8B03004FB03240B4B1C60002010BD43B149B1084A51609360111D2046FFF786FF10BD054810BD044810BD00BFD43F0408506A08103C4B020803018A00FE
:400C40002DE9F0411B4B1B68DC68236883422CD90D464609A0EB4610012303FA00F819B900F0F7FA074600E00027124B18680368002B01DA002300E00F4B83B9626852F80D
:400C8000263018EA030F05D023EA080342F82630002400E0094C0021FFF7F2FE00E0084C25B9384600F0D9FA00E0064C2046BDE8F08100BF3C4B020801008A000201880086
:400CC0000301880004018A000B4B1B68DB681A6882420CD94109A0EB4110012202FA00F05B6853F82130184203D004487047044870470448704700BF3C4B020801018800EE
:400D000004018A0000018800024B1B680BB9014B18607047484B02082DE9F8430446884691461D46089F2C4B1B681BB9B5212B4800F024FA284B1B682C2000FB04F01C181B
:400D4000EEB21E50C5F3072363602D0CA560244B1B6893F831309E4204D340F2C311214800F00CFA1E4B1B68196AB3F8B02006FB02162661666893F832309E4204D340F25A
:400D8000DF11184800F0FAF9154B1B681D6A803605EB46156561A668330C1B0423B14FF4FF71104800F0EAF9330C1B0423B140F2FF110C4800F0E2F9B3B243EA0646AE6032
:400DC000C4F81C90C4F820800023A36117B1B7F90030A381BDE8F883484B0208D06A0810D43F0408506A0810F0B58FB0044618B95221274800F0C2F9A369072B03D956211F
:400E0000234800F0BBF9E36A1BB95821204800F0B5F9236B1BB959211D4800F0AFF907AD04F114060FCE0FC537682F6002AD26460FCE0FC533682B60164B1B68B3F93620B0
:400E4000079B1344ADF83030089B0D93A26AE16A0CAD00953B460A98FFF75EFF00210091069B0A460598FFF757FF216B284600F027F9BDF93030002B08DB590903F01F03E5
:400E8000012202FA03F3044A42F821300FB0F0BDD06A0810D43F040800E100E0F8B506460F461D4614461AB9FD211F4800F066F91E4B1B681BB9FE211B4800F05FF91B4B04
:400EC0001B682C2101FB063001FB07314B68012202FA03F31B04466802FA06F60269EAB18F69EFB91268002A01DA002200E0104AC2B92288134323600369DC6001238B61F8
:400F00004D620469330C1B0423B140F2BB21094800F034F9B2B2A2600020F8BD0648F8BD0648F8BD0548F8BDD06A0810484B020801008A00506A081004028A0007028A0035
:400F4000F8B505460F4616460E4B1B6823B94FF4AF710D4800F012F90A4B1B682C2404FB0534236A23B94FF4B171074800F006F9E369B34204D9236A43F826700020F8BDA0
:400F80000248F8BD484B0208D06A08100A028A0070B582B000230193044620B940F2D111284800F0EBF8236923B94FF4E971254800F0E4F8636923B940F2D311214800F0D0
:400FC000DDF8236A23B94FF4EA711E4800F0D6F86369DD682A0C20D012041A601B682069194B1B68D3F8B430C358002B15DA01A9FFF782FD60B9019803681E0CDBB2E26915
:40100000934206D2226A52F8233013B1984700E0002631462069FFF733FDADB275B16369ADB21D601B68636A1BB198470023636202E0A36A03B198470023A36163691B6803
:4010400002B070BDD06A0810D43F040810B50446074B1B6823B940F2B111064800F08EF8034B1B682C2000FB0430FFF791FF10BD484B0208D06A081038B50D4B9A680D4B7B
:401080009A420FD10D46044621B940F237110A4800F074F804F11003064A52F8230042F8235038BD1030054B53F8200038BD00BF00ED00E000400208106B081000000810FD
:4010C00048B338B504460D464368072B03D93221134800F053F8B4F900306268002B08DB5201D2B203F1604303F5614383F8002305E003F00F035201D2B20A49CA540A4BE5
:401100009A680A4B9A4208D12946B4F90000FFF7B3FF002038BD06487047002038BD00BF106B081014ED00E000ED00E0004002080100560010B5044605E0084B186800F058
:401140007FF8A4F50044B4F5004FF6D8044B186800FB04F000F074F810BD00BFA8420208A442020808B5034B1B7800FB03F000F067F808BDA042020801BEFEE738B50D465B
:40118000044C18220146204603F07AFBA5610020FFF7F2FFF0480208FEE700BF08B50268254BDA6142681A6282685A62C2689A620269DA6242691A6382695A63C2699A633A
:4011C0001E4A916AD963D16A1964516A5964516B9964926BDA64F1EE103A13F0900F27D0026A154B1A65426A5A65826A9A65C26ADA65026B1A66426B5A66826B9A66C26BEA
:40120000DA66026C1A67426C5A67826C9A67C26CDA67026DC3F88020426DC3F88420826DC3F88820C26DC3F88C20026EC3F89020FFF7B2FF08BD00BFF048020800ED00E0DD
:401240000230800803D001300238FCD100BF00BF7047EFF3108072B6704780F310887047014B1860704700BFD43F04082DE9F8430E46074618B93A217548FFF77FFF1EB9E2
:401280003B217348FFF77AFF002F00F0DA80002E00F0DA8032686F4B13401BB14A216C48FFF76CFF72686C4B13401BB14B216848FFF764FFB36813F0FC2F03D04C2164486A
:4012C000FFF75CFFF36813F0FC2F03D04D216048FFF754FF337D032B03D94E215C48FFF74DFFB369B3F5803F03D34F215848FFF745FFF36D072B03D950215548FFF73EFF81
:40130000336EB3F5803F03D351215148FFF736FF736EB3F5803F03D352214D48FFF72EFF736843F000437B60B3683B61F3687B613369BB61337D9B07FB61B3693B6233687C
:4013400003F46068736803F00409002435E02546A31D06EB83035A68404B13401BB163213B48FFF70BFFAB1D06EB8303596805F1200247F822105B6813F0012F0BD1B8F57D
:40138000606F08D1B9F1000F05D04FF47842344B23F8152003E00022314B23F81520726F02F11C7303F58033520093FBF2F31BB22C4A42F825300134E4B20F2CC7D9F36DAF
:4013C000C7F81832F36DC7F81032336EC7F82832336EC7F82032736EC7F83832736EC7F8303296F87030DBB1B36EB3F1804F03D382211748FFF7C2FEF36E23F44F0323F052
:40140000FF031BB183211248FFF7B8FE6FF04043C7F80433B36EC7F80033F36EC7F84433D7F8003F3F2B02D0D7F8003F13B90B23C7F8003F336843F400133B600020BDE81D
:40144000F8830948BDE8F8830748BDE8F88300BFC46C08100811DF0001FE302088CA887ED83F0408F83F04080100060038B50D46044618B9B5211748FFF780FE2CB30023F8
:40148000236063604FF0031222616261A361E361236206E003F12002002144F822100133DBB20F2BF6D90023C4F81832C4F82832C4F838325DB16FF04043C4F804330020C2
:4014C000C4F84003C4F8440338BD034838BD002038BD00BFC46C08100100060008B50368002B0ADBD0F8A032002BFBDB036843F0004303600220FFF735FE08BD38B5054633
:401500000C46012904D940F271110648FFF736FE012C04D16B6843F480336B6038BD01236B6238BDC46C0810436813F4803F03D0436823F480334360704700BF38B5044670
:401540000D46012904D94FF4F0711148FFF716FED4F8103203F00103012D06D00AE0D4F8103203F00103013A00E00A4A1BB9002AF5D100E0074A33B10123C4F81032D4F8DC
:401580001032002038BD0AB9034838BD034838BDC46C081055555501020006000300060038B505460C460F2904D940F27B210648FFF7E4FD0F2C04D8603455F8240080B258
:4015C00000E0002000B238BDC46C081010B4D0F8003303F00F03072B06D900230DE0D0F84043CC54013300E000239342F7D306E0D0F8404321F8134001339342F8D35DF810
:40160000044B704710B51446D0F80833C3F308039A4200D31C462246FFF7D8FF204610BD036813F4006F01D0802200E04022D0F80832C3F30803934203D0C0F8401201201C
:4016400070470020704700BF10B4D0F8003203F00F03072B06D900230DE0CC5CC0F84042013300E000239342F7D306E031F81340C0F8404201339342F8D35DF8044B704736
:4016800010B51446036813F4006F01D0802200E04022D0F80832C3F30803D31AA34200D81C462246FFF7D0FF204610BD2DE9F84305460C46036813F4006F02D04FF08008DE
:4016C00001E04FF04008D5F8007207F00F07A26A012A19D9D4F82490E262561EB9F1000F00D026B940F273512548FFF747FD324649462846FFF7C4FFA36A1B1AA362072F25
:4017000000D9400048446062D5F80832C3F30803984533D0A36A012B30D10023A362072F02D8636A1E7801E0636A1E88FFF791FDC5F840624FF40073C5F8803FD5F8803FD0
:40174000FFF78BFDD5F8883F23F4007222F0010242F4007623F4EE6323F0030323B140F22A410848FFF70AFDC5F8886F236843F002032360236B0BB101209847BDE8F8836A
:40178000006D0810406D08102DE9F04105460C46036813F4006F01D0802600E040267608A769D4F81C8017B1B8F1000F04D14FF499613148FFF7E2FC424639462846FFF71D
:4017C00021FF236A03442362E3691B1AE36173BBA368FBB1E3689E4201D8013E00E05E1E2B6813F4006F01D0802300E040239E4204D34FF420712148FFF7C0FCD5F80433BD
:4018000023F0FF03F6B21E43C5F804630123C5F8C83F02E00023C5F8C83F636823F001036360236B33B304209847BDE8F081A169D5F8002302F00F02072A00D940000844F0
:40184000A0619E4216D95C1E2B6813F4006F01D0802300E040239C4204D34FF420710748FFF78CFCD5F8043323F0FF02E3B21343C5F80433BDE8F081006D0810406D0810B1
:40188000002800F0A48170B50546002900F0A18116460C460B78022B03D93F21A248FFF76DFC637B023BDBB2062B03D940219E48FFF764FCA37B3BB1022B05D0032B03D0FE
:4018C00041219948FFF75AFC94F82130012B03D942219548FFF752FC94F82830012B03D943219148FFF74AFC2378012B06D86368083B082B94BF0023012307E0A37F2BB126
:401900006368013B062B94BF002301231BB145218548FFF733FCA368053B042B03D946218148FFF72BFC6369FF2B03D947217E48FFF724FCA369FF2B03D948217A48FFF7C5
:401940001DFCA37C6BB1237833B9A368092B05D1A37B2BB1012304E0012302E0012300E000231BB14A217048FFF708FC636B23F4366323F00D031BB14C216B48FFF7FEFBE3
:40198000E36B23F4EE6323F003031BB14D216648FFF7F4FB2378022B01D1A37F13B16268013A00E00022237F13B14FF4803100E00021A368082B02D84FF4006300E00023E8
:4019C0000B4302F00F02134343F000732B60226B2B6813F4006F01D0802300E040239A4203D362215048FFF7C9FBA26B2B6813F4006F01D0802300E040239A4203D3632138
:401A00004948FFF7BBFB626A2B6813F4006F01D0802300E040239A4203D364214248FFF7ADFB23781B0603F040732B64637F0BB1402200E00022A37C13B14FF4806300E0A2
:401A400000231343227C12B14FF4807200E000221343627C12B14FF4007200E000221A43E36A013B1B0403F470231343627B013A02F007021343A27B120102F030021343AF
:401A8000AB64237B13B14FF4807200E00022E37B23B92378022B03D1012302E0012300E0002313B14FF4007300E000231A43A368013B03F00F031343C5F80033227DA36964
:401AC0001B0403F47F031343C5F81033E26AD5F8003303F00F0303339A4201D3102A03D97A211148FFF74AFBE37F23B12378012B03D0002302E0002300E0012313B14FF479
:401B0000807200E00022637B013B03F007031A43A37B1B0103F0300313436B64237B2BB14FF4807203E000BF846D08100022A368013B03F00F0313432278012A02D14FF4BF
:401B4000803200E000221343C5F8003294F83030C5F8043394F8203013B14FF0007200E0002294F82130012B02D14FF0807300E00023134394F82820012A02D14FF480320B
:401B800000E00022134394F8242013432B6594F83830C5F80432636B23F4926323F002031B051B0DC5F8C83FE36B23F08C035B055B0DC5F8883F76B1002070603060B0603F
:401BC000F0603062F0623063044B736370BD04487047034870BD002070BD00BFEFCDAB000160AA000B694A69934202D34869181A7047CA694869101A184470472DE9F04100
:401C000007460D46036813F4006F02D04FF0800801E04FF040084FEA5808D7F80863C6F308062C6926E00134EB689C4200D100246B699C420FD12B6B0BB1082098476B69D3
:401C40009C4208D10023C7F8C83F0CB1013C13E0EC68013C10E0D7F84023D7F8003303F00F03072B02D8AB681A5502E0AB6823F81420013E002ED6D12C61EC682946384669
:401C8000FFF7B0FF201A804519D908B1441E00E000243B6813F4006F01D0802300E040239C4204D34FF420710648FFF767FAD7F8040320F0FF03E0B21843C7F80403BDE831
:401CC000F08100BF406D081038B504460D46D0F8003E13F0080F35D0D0F8CC3F13F448730AD04A681A434A60C0F8C03FD0F8C03F0B6B0BB110209847D4F8CC3F13F4006F0C
:401D000009D06B6843F400636B604FF40063C4F8C03FD4F8C03FD4F8CC3F13F0010F11D0EB6923B129462046FFF72EFD05E0AB681BB129462046FFF761FF0123C4F8C03FAF
:401D4000D4F8C03FD4F8003E13F0040F2ED0D4F88C3F13F4A0630AD02A681A432A60C4F8803FD4F8803F2B6B0BB120209847D4F88C3F13F0010F08D029462046FFF796FC30
:401D80000123C4F8803FD4F8803FD4F88C3F13F4007F0BD00022C4F8882F2B6823F001032B60EA622B6B0BB10220984738BD00BF002800F0E081F0B5032840F0D9800329E6
:401DC00021D809B9072A0AD9012901D10F2A06D9022901D1032A02D9032914D19AB9BA4B1D68AE6895F8710001FA00F7032404FA00F307EA030095F870301340034343F002
:401E00008043C6F80034B04B1B6893F83F0037281ED903291CD809B9072A0AD9012901D10F2A06D9022901D1032A02D903290FD172B99D6893F8710001FA00F6032404FAF2
:401E400000F0304093F8703013400343C5F8DC3C012922D871B9072A56D89B4B18688468B0F87430234453F8220020F47F4043F8220049E0012947D10F2A45D8924B1B68F9
:401E80009868B3F87630184450F8223023F47F0323F47F4340F8223036E002291BD1032A32D8894C23689868B3F87830184450F8223023F47F0323F47F4340F8223020684E
:401EC0008468B0F87830234453F8220020F0F80043F8220018E0032916D1AAB97A4C20688568B0F87A302B4453F82200C0B243F8220020688468B0F87A30234453F822002D
:401F000020F0F80043F82200032900F2338109B9072A0DD9012901D10F2A09D9022901D1032A05D9032940F02581002A40F02281654B1D68AC6895F87360032000FA06F7B0
:401F400095F8703095F8726003FA06F63E4395F87170B940B840014031431A4041EA020343F00043C4F80034AB68D3F80034F0BD032921D809B9072A0AD9012901D10F2A68
:401F800006D9022901D1032A02D9032914D19AB94D480668B76896F8714001FA04FE032505FA04F00EEA000496F870001040204340F08040C7F800044348006890F83F4006
:401FC000372C1ED903291CD809B9072A0AD9012901D10F2A06D9022901D1032A02D903290FD172B9866890F8714001FA04F7032505FA04F43C4090F8700010402043C6F820
:40200000DC0C012932D8A9B9072A00F28480FF2B00F281802C480468A568B4F87400284450F8224024F47F441B029BB2234340F8223070E001296ED10F2A6CD8B3F5803FE9
:4020400069D2214800688468B0F87600044454F8220020F47F0020F47F401B0223F07F4323F0FF03034344F8223054E002292DD1032A50D8B3F5803F4DD205981F284AD815
:40208000114D28688468B0F87800044454F8220020F47F0020F47F401B0223F07F4323F0FF03034344F822302B689868B3F87830184450F8223023F0F804059BDB00DBB23C
:4020C000234340F8223026E0D43F0408032922D10ABBB3F1807F1ED205981F281BD8264D28688468B0F87A00044454F82200C0B240EA032344F822302B689868B3F87A307E
:40210000184450F8223023F0F804059BDB00DBB2234340F8223003292CD809B9072A0AD9012901D10F2A06D9022901D1032A02D903291FD1F2B9104B1D68A86895F873606C
:40214000032404FA06F795F8703095F8726003FA06F63E4395F87170B940BC40214031431A4041EA020343F00043C0F80034AB68D3F80034F0BD7047D43F040870B582B027
:402180000C46054618B949215448FEF7F7FF1CB94A215248FEF7F2FF002D00F09A80002C00F099802378012B03D958214B48FEF7E5FF636833B1B3F1807F03D059214748DE
:4021C000FEF7DCFF237A042B03D95A214348FEF7D5FF638963B1B3F5807F09D0B3F5007F06D0B3F5407F03D05B213C48FEF7C6FFE3687BB1B3F5800F0CD0B3F5400F09D0CD
:40220000B3F1006F06D0B3F1086F03D05C213348FEF7B4FF237C012B03D95D212F48FEF7ADFF636933B1B3F1804F03D05E212B48FEF7A4FFA3693F2B03D95F212748FEF734
:402240009DFFA36903F03F0263891343217A8A1ED2B2022A01D843F08053042901D143F000536268134362691A43E66816432378012B02D10023012201E001230022217C56
:40228000012902D142F4807201E043F4807394F82410A9620121A962C5F8B020C5F8B430E369C3F30B03C5F80031236AC3F30B03C5F8043194F8253043B1E36AA26A94F8CD
:4022C0002610207A246B0094FFF772FD2E60002002E0034800E0024802B070BDC46D08100100660070B539B900240AE015F8010BFEF764FA013402E016460D460024B44281
:40230000F4DB204670BD00BF70B561B900240FE0FEF760FAC0B2287001340A2808D00D2806D0013502E016460D460024B442EFDB204670BD38B504461E4B1A68916892F8A4
:40234000703003F00203DBB243F08043C1F800340369FF2B0AD89168B2F874200A44916821F47F411B029BB20B439360114B1A68906892F87310032303FA01F592F87030B9
:4023800092F8721003FA01F1294303F002030B4343F00043C0F800349368D3F80034064D00212846FFF762F8A1682846FEF75EFF38BD00BFD43F040800001D4108B5074BD9
:4023C0005B6813F4802F04D001210448FFF796F808BD00210148FFF791F808BD00001D4108B501460348FFF7A9F808B1002008BD012008BD00001D4108B5084B1B7963B945
:4024000007490848FEF75CFE044B5B792BB90122024B5A710448FFF78DFF08BD884B02085924081078690810406E081008B5084B1B7913F0010F06D1FFF7DEFF044A13796C
:4024400043F0010313710348FFF748F808BD00BF884B020800001D4110B5094BD3F81042072C04D940F231610648FEF787FE044BC3F81042D3F81022D3F8103210BD00BF9D
:4024800000001D41046E081008B502490248FFF71BFC08BD384004080000664008B5114B1B785BB9104A11491148FFF7E9F911491148FEF705FE01220A4B1A700E4BB3F98F
:4024C0000030002B08DB590903F01F03012202FA03F30A4A42F82130054A136843F00043136008BD8E4B020838400408CC6E081000006640892408108869081000E100E0CD
:4025000008B5074B1B7833B900F0FCF800F04EF90122034B1A7000F03DF800F09BFB08BD8F4B020810B5FFF7EBFF044610B900F065FB044614B900F0B1FA044600F05EFA57
:402540000028FBD100F03CF900F07EF9204610BD70B50E4D0026344614E0630904330C4A52F8233004F01F02D34013F0010F07D0284600F047F806462946204600F090F8B6
:4025800020350134012CE8D9304670BD406F08107040040870B500230AE0124A191D02EB8100002444604FF0FF3042F821000133002BF2D00C4C02230FE06668A27E094BEB
:4025C0002B4400211976012A05D1206918B1228BF17901F0AFFB20342B465D1E002BECD170BD00BF70400408406F081030B40B884A889C1A0025CD800079844200DDCC8047
:4026000030BC70472DE9F0418468038B456890F81A8000270BE042462146284600F02AF9074621462846FFF7E1FF0A3433465E1E002BF0D13846BDE8F08100BFF0B50C8B3F
:402640008D684F680A69012324E010EA030403D17E88B979314402E07988BE79891BEE88B14201D3002100E01946A14202D01678013E1670A14201D014783CB920EA0300EC
:40268000084309B9F97900E0012111705B000A350132744604F1FF3E002CD6D1F0BD00BF38B504468A7E154B03441D7E012A04D12846FFF7C3FF054604E04FF43871104806
:4026C000FEF75CFD0D4B23441D76620904F01F04012303FA04F445B90432084B03EB8202536823EA0404546038BD0432034B03EB820253681C43546038BD00BF70400408F9
:402700000C6F0810F8B51D4E54220021304601F011FB40F6E84333804FF41063738041F66A03B3800823738304233377144C04F144050FCDC6F81E00C6F82210C6F8262014
:40274000C6F82A3007CDC6F82E00C6F83210C6F836202046043402230CE0A268238B04E010F8013B53720A320B46591E002BF7D120342B465D1E002BEFD1F8BD7040040886
:402780003C6F081001280DD800F01F02012303FA02F24009031D044800EB83035B6802EA0300704700207047704004080023024AD380024A1360704770400408984B02081F
:4027C000704700BFC9B2062902D083180021197130F8121000EB42035980024400231372704700BF70B506460D46012305E0224629463046FFF7E6FF23465C1E002BF6D120
:4028000070BD00BF08B5064B03EB4013986801EB81014A00997E1044FFF7E4FF08BD00BF406F081038B50546064B03EB40131B8B04E021462846FFF7E5FF23465C1E002B05
:40284000F7D138BD406F081010B5022303E02046FFF7E8FF23465C1E002BF8D110BD00BF00FA03F3C2F5807001FB00F102FB0310000A70472DE9F04106460D4617460123A5
:4028800042E035F8140005EB44035988884207D3431A2A194FF0000E82F808E0012201E00B1A002292B996F805E073450ED92B191B7A327A934205D3224639462846FFF785
:4028C00081FF20E02A19013313721CE096F804E0734504D996F805E0734514D89AB9FBB2062B10D005EB040898F804E0082301224EEA0121FFF7B4FFC0F30F2205EB440355
:402900005A8088F8040023465C1E002BB9D10020BDE8F08130B49F280ED940F2FE3399420AD9244CA1FB04454B1B05EB53035B0AC3EB832399422FD09F280DD9B1F5FF7F53
:402940000AD91D4CA1FB04454B1B05EB53031B0AC3EB4323994221D09F280CD97E290AD9164CA1FB04454B1B05EB53039B09C3EBC313994214D09F2814D93E2914D9104C01
:40298000A1FB04454B1B05EB53035B09C3EB831399420BD000200AE0042008E0032006E0022004E0002002E0002000E0012030BC704700BF05104000214080001108040229
:4029C000054110044A1E032A01D8102300E0002379B183B1642202FB03F3B3FBF0F3002001E001305B00092BFBD90A2B04D9013802E0002000E00020C0B27047024BD868D9
:402A000000F08000704700BF70400408034B0340034AD0681843D060704700BF8000010070400408034B0340034AD06820EA0300D0607047800001007040040810B50F4B3A
:402A4000DB6813F4803F0ED101280ED8430904330A4A52F8233000F01F02D34013F0010F05D1012404E0112402E0012400E000240CB900F033FD204610BD00BF7040040802
:402A800008B5054BDB6813F4803F03D100F0F4FB002008BD112008BD70400408114BDB6813F0800F19D110B500244FF0FF3311E02046FFF7C3FF034658B91CB901220A4B8B
:402AC0001A7002E00022084B1A70FFF7D9FF034606E00134012CEBD902E0112318467047184610BD704004089C4B020830B583B00025074C08E02179002300930E222068C5
:402B0000FDF742FF08340135032DF4D903B030BD9C6F081038B51B4A53780133DBB253705078FFF78BFF044650B9164B5B78DBB2012B02D10022134B1A70FFF7A1FF1EE094
:402B4000104B5B78DBB2012B10D10F4D2B8901332B818020FFF766FFEB6823F07F43EB60EB6843EA0464EC60002408E0064BDA6822F07F42DA60DA6842EA0062DA60002C19
:402B8000C9D138BD9C4B02087040040810B50146124BB3F90030002B0DDB5A0903F01F03012404FA03F320320D4840F82230BFF34F8FBFF36F8F094C2046FEF781FAB4F9A7
:402BC0000030002B08DB590903F01F03012202FA03F3034A42F8213010BD00BF8069081000E100E010B5012801D8002400E0012414B9282100F040FA204610BD38B5002471
:402C0000254604E02046FFF7EDFF05430134012CF8D9284638BD00BFF8B5002415E00C4B03EB44135D682E88204600F099FC07463146FFF76FFE064601463846FFF7C2FEAA
:402C40000001C0B2304328730134012CE7D9F8BD406F081008B5FFF7DFFFFFF747FF00F05DF9002008BD00BF38B51F4D2A6893691E4CE31ADB0951691B01CA5822F4F852F4
:402C8000CA50022363602B6893F87D20135923F0F00343F0600313512A689369E31ADB0951691B01CA5822F4F812CA50042363602B6893F87D20135923F4706343F4C063F5
:402CC00013510120FEF74EFA2B6893F87D20135923F0F00313512B6893F87D20135923F47063135138BD00BFD43F04088003324042890388901E10FB03F080B2704700BF9A
:402D000008B52A4BB3F90030002B0DDB5A0903F01F03012101FA03F32032254941F82230BFF34F8FBFF36F8F224B4FF483721A601B68214BD3F8D020D3F8D4309BB213FA6A
:402D400082F31E4A128892B2934204D91B4A13889BB2538002E09BB2184A5380184B1B689847184BDB6813F0800F0FD1164A124B1A604FF4407203F5C6731A60134A03F559
:402D80001D731A601F22A3F598731A60074BB3F90030002B08DB590903F01F03012202FA03F3034A42F8213008BD00BF8069081000E100E0F000364000003640A84B0208EC
:402DC000AC4202087040040820100C80800E43013F4B1A683F4B1B7813445A7A3E4B13433E4A136000233E4A53803E493E4A1160012102F5C0721160112102F5807211601D
:402E00004FF08071043211603C3213600622374B1A60374A28331A6041F2101204331A60344AC43B1A6040F2033203F5A8731A604FF4FA6300E0013B2F4A126812F0010FAE
:402E400001D0002BF7D12C4B1B6813F0010F03D04FF44272284B1A60284B1A7F284BB3FBF2F3284A934204D9274A934203D8302302E0202300E0402343F0004343F44123A7
:402E8000194A136040F20132204B1A60002320490B6001F580710B6004310B603C310B6038390B601B482831086042F2102004310860C4390B601F21174B1960A3F5F073B2
:402EC0004FF4837119601B680B4B1A60704700BFC4400408BC6F0810800E430100043640A84B020820100C80000036408802364001010100AA000500400336407040040864
:402F000080F0FA02001BB70000366E018C0136408001364001030300D002364010B5FFF7A3FE48490B6893F87D00474BC25822F0F002C2500A6892F87D10CA5822F47062A8
:402F4000CA504FF4837203F57F3303F5B8731A60002404331C60022204331A6088331C6004331C6041F2415204331A604FF4407204331A60354A03F51D731A60344AA3F56E
:402F800004731A60334A10331A6004331C607C331C6004331C6004331C6008331C60FEF758F92D4A136823F480531360FEF755F923222A4B1A604FF0807204331A60FEF708
:402FC00048F9274A136823F0805323F4801343F080531360FEF741F9224A234B1A6042F2102204331A600C331C601F2210331A600F2230331A60042210331A6004331C60A4
:403000000C331C604FF4427220331A60174AA3F550731A60164B1B7F013BFF2B0BD8094A12689068B2F87410425822F47F421B029BB213434350FFF759FD0E48FFF7A6FDA5
:4030400010BD00BFD43F040880033240800E4301AA0005002A00000C94023640A0023640A802364001030300B002364020100C8070400408012D08102DE9F84381460E465C
:40308000294C04EB4014D4F80880284BC3F800806068FFF72DFE264B18801B889BB203FB06F3244EA6FB03367609E37E257F05FB03F5002109E01D4A136800201880136896
:4030C000402058720A3313600131A942F3D32024402700E01C464846FFF7B0FCFFF7D0FC154BDB6813F0800FFAD1104BC3F8008000210FE00D4B1B681A88964203D25A7A90
:4031000022EA07025A725A7A22435A720A33074A13600131A942EDD3C4F347032746002CD8D1BDE8F88300BF406F0810C4400408A84B02081F85EB5170400408F8B5054641
:40314000FEF787F806462F682C79072C04D94FF471712048FEF712F8A4001F4B1B6893F87D00C2590F23A34022EA0301062202FA04F30B43C3512C682D79072D04D94FF4D3
:4031800022711448FDF7FAFF134B1A689369E31ADB0952691B01D118032D0BD8D158ED001F20A84021EA00000A2101FA05F50543D5500BE0043D4B68ED001F22AA4023EACA
:4031C00002020A2303FA05F515434D603046FEF744F8F8BDC06F0810D43F0408F8B50546FEF737F806462F682C79072C04D94FF471711F48FDF7C2FFA4001E4B1B6893F8D0
:403200007D10CB590F2202FA04F423EA0404CC512C682D79072D04D94FF422711448FDF7ADFF144B1A689369E31ADB0952691B01D118032D0BD8D158ED001F20A84021EA90
:403240000000042101FA05F50543D5500BE0043D4B68ED001F22AA4023EA0202042303FA05F515434D603046FDF7F7FFF8BD00BFC06F0810D43F040810B50022104B1A7096
:40328000104B1B689968104A11601A7F0F4CA280D87EE0801B68A36003EBC000E060FFF74DFFA068FFF79AFF094A0A4B1A608020FFF7ACFB1720FDF755FFFFF789FD10BD24
:4032C000A44B0208A04B0208C4400408A84B0208E9330810AC42020870B50546FDF7B9FF06462C682D79072D04D94FF422711148FDF744FF104B1A689369E31ADB09526919
:403300001B01D118032D08D8D158ED001F2000FA05F521EA0505D55008E0043D4B68ED001F2202FA05F523EA05054D603046FDF794FF70BDC06F0810D43F0408F8B50646A8
:40334000FDF787FF074634683579072D04D94FF422712348FDF712FF224B1A689369E31ADB0952691B01D118032D08D8D158ED001F2000FA05F521EA0505D55008E0043D9D
:403380004B68ED001F2202FA05F523EA05054D6035683479072C04D94FF471711048FDF7EDFEA4000F4B1B6893F87D0042590F23A34022EA0301062202FA04F30B43435176
:4033C00035683479072C04D940F281310448FDF7D5FE0123A3406B603846FDF73EFFF8BDC06F0810D43F040810B52C4B19682C4B18782C4C23889AB263889BB2D31A21F86F
:403400001030E068FFF768FF274A13780133DBB21370A388013B9BB2A3805BB1E0680830E060FFF78BFE1D4A13680A331360FFF7CFFC10BD1B4AD388013B9BB2D380D3B105
:4034400014469068FFF77AFFA0680830A060FFF7C5FE164B1A68137FA3801368D07E03EBC000E060FFF76AFE0C4A13680A331360FFF7AEFC10BD0B4B9868FFF75FFF0C4BF6
:403480001B7813B1FFF746FB10BD0A4A1389013313818020FFF7C6FA10BD00BFC4400408BC6F0810A84B0208A44B0208A04B02089C4B020870400408074B1B8A53B110B56C
:4034C000054CE068FFF708FFA068FFF737FF0023238210BD704700BFA84B020838B50446C2B2174B1A70FFF7E7FF164800EB4410154B186045686C892A88144B1A60284677
:40350000FFF7F6FB124B18802B7B013CC4F30B0444EA034444F040640E4B1C600E4B1B7F013BFF2B0BD80D4A12689068B2F87410425822F47F421B029BB21343435038BDF8
:403540009D4B0208406F0810A04B020814033640A84B02080002364070400408D43F0408024B03EB4010436858897047406F081008B5084B1B7833B907490848FEF7FEFD0C
:403580000122044B1A70054A136843F00043136008BD00BFBC4B0208007008100000144181F0004102E000BF83F0004330B54FEA41044FEA430594EA050F08BF90EA020F19
:4035C0001FBF54EA000C55EA020C7FEA645C7FEA655C00F0E2804FEA5454D4EB5555B8BF6D420CDD2C4480EA020281EA030382EA000083EA010180EA020281EA0303362DEC
:4036000088BF30BD11F0004F4FEA01314FF4801C4CEA113102D0404261EB410113F0004F4FEA03334CEA133302D0524263EB430394EA050F00F0A780A4F10104D5F1200EF4
:403640000DDB02FA0EFC22FA05F2801841F1000103FA0EF2801843FA05F359410EE0A5F120050EF1200E012A03FA0EFC28BF4CF0020C43FA05F3C01851EBE37101F000450E
:4036800007D54FF0000EDCF1000C7EEB00006EEB0101B1F5801F1BD3B1F5001F0CD349085FEA30004FEA3C0C04F101044FEA445212F5800F80F09A80BCF1004F08BF5FEA2D
:4036C000500C50F1000041EB045141EA050130BD5FEA4C0C404141EB010111F4801FA4F10104E9D191F0000F04BF01460020B1FA81F308BF2033A3F10B03B3F120020CDA05
:403700000C3208DD02F1140CC2F10C0201FA0CF021FA02F10CE002F11402D8BFC2F1200C01FA02F120FA0CFCDCBF41EA0C019040E41AA2BF01EB0451294330BD6FEA040415
:403740001F3C1CDA0C340EDC04F11404C4F1200220FA04F001FA02F340EA030021FA04F345EA030130BDC4F10C04C4F1200220FA02F001FA04F340EA0300294630BD21FA4F
:4037800004F0294630BD94F0000F83F4801306BF81F480110134013D4EE77FEA645C18BF7FEA655C29D094EA050F08BF90EA020F05D054EA000C04BF1946104630BD91EAA3
:4037C000030F1EBF0021002030BD5FEA545C05D14000494128BF41F0004130BD14F580043CBF01F5801130BD01F0004545F0FE4141F470014FF0000030BD7FEA645C1ABF53
:40380000194610467FEA655C1CBF0B46024650EA013406BF52EA033591EA030F41F4002130BD00BF90F0000F04BF0021704730B54FF4806404F132044FF000054FF0000119
:4038400050E700BF90F0000F04BF0021704730B54FF4806404F1320410F0004548BF40424FF000013EE700BF42004FEAE2014FEA31014FEA02701FBF12F07F4393F07F4F98
:4038800081F06051704792F0000F14BF93F07F4F704730B54FF4607401F0004521F0004120E700BF50EA010208BF704730B54FF000050AE050EA010208BF704730B511F00A
:4038C000004502D5404261EB41014FF4806404F132045FEA915C3FF4DCAE4FF003025FEADC0C18BF03325FEADC0C18BF033202EBDC02C2F1200300FA03FC20FA02F001FAF8
:4039000003FE40EA0E0021FA02F11444C1E600BF70B54FF0FF0C4CF4E06C1CEA11541DBF1CEA135594EA0C0F95EA0C0F00F0DEF82C4481EA030621EA4C5123EA4C5350EA67
:40394000013518BF52EA033541F4801143F4801338D0A0FB02CE4FF00005E1FB02E506F00042E0FB03E54FF00006E1FB03569CF0000F18BF4EF0010EA4F1FF04B6F5007FC6
:4039800064F5407404D25FEA4E0E6D4146EB060642EAC62141EA55514FEAC52040EA5E504FEACE2EB4F1FD0C88BFBCF5E06F1ED8BEF1004F08BF5FEA500E50F1000041EBC1
:4039C000045170BD06F0004646EA010140EA020081EA0301B4EB5C04C2BFD4EB0C0541EA045170BD41F480114FF0000E013C00F3AB8014F1360FDEBF002001F0004170BD6B
:403A0000C4F10004203C35DA0C341BDC04F11404C4F1200500FA05F320FA04F001FA05F240EA020001F0004221F0004110EBD37021FA04F642EB06015EEA430E08BF20EAB0
:403A4000D37070BDC4F10C04C4F1200500FA04F320FA05F001FA04F240EA020001F0004110EBD37041F100015EEA430E08BF20EAD37070BDC4F1200500FA05F24EEA020E8A
:403A800020FA04F301FA05F243EA020321FA04F001F0004121FA04F220EA020000EBD3705EEA430E08BF20EAD37070BD94F0000F0FD101F00046400041EB010111F4801FAF
:403AC00008BF013CF7D041EA060195F0000F18BF704703F00046520043EB030313F4801F08BF013DF7D043EA0603704794EA0C0F0CEA135518BF95EA0C0F0CD050EA4106C4
:403B000018BF52EA4306D1D181EA030101F000414FF0000070BD50EA410606BF1046194652EA430619D094EA0C0F02D150EA013613D195EA0C0F05D152EA03361CBF10463A
:403B400019460AD181EA030101F0004141F0FE4141F470014FF0000070BD41F0FE4141F4780170BD70B54FF0FF0C4CF4E06C1CEA11541DBF1CEA135594EA0C0F95EA0C0FBA
:403B800000F0A7F8A4EB050481EA030E52EA03354FEA013100F088804FEA03334FF0805545EA131343EA12634FEA022245EA111545EA10654FEA00260EF000419D4208BF77
:403BC000964244F1FD0404F5407402D25B084FEA3202B61A65EB03055B084FEA32024FF480104FF4002CB6EB020E75EB030E22BFB61A754640EA0C005B084FEA3202B6EBF7
:403C0000020E75EB030E22BFB61A754640EA5C005B084FEA3202B6EB020E75EB030E22BFB61A754640EA9C005B084FEA3202B6EB020E75EB030E22BFB61A754640EADC0089
:403C400055EA060E18D04FEA051545EA16754FEA06164FEAC30343EA52734FEAC2025FEA1C1CC0D111F4801F0BD141EA00014FF000004FF0004CB6E711F4801F04BF0143E9
:403C80000020B4F1FD0C88BFBCF5E06F3FF6AFAEB5EB030C04BFB6EB020C5FEA500C50F1000041EB045170BD0EF0004E4EEA113114EB5C04C2BFD4EB0C0541EA045170BD85
:403CC00041F480114FF0000E013C90E645EA060E8DE60CEA135594EA0C0F08BF95EA0C0F3FF43BAF94EA0C0F0AD150EA01347FF434AF95EA0C0F7FF425AF104619462CE7F1
:403D000095EA0C0F06D152EA03353FF4FDAE1046194622E750EA410618BF52EA43067FF4C5AE50EA41047FF40DAF52EA43057FF4EBAE12E702440346934202D003F8011BBB
:403D4000FAE770472DE9F04788B0002B149F1299109EDDF84CA01D4627F02007BBBF03F100431D4600232D231446B8BF1446462F0B7003D0452F03D1013601E0032300E0B2
:403D8000022307AA049206AA03928DE8480422462B4600F0DDFE472F804602D1119BDB0728D5462F08EB060911D198F80030302B0AD1002200232046294602F097FC18B994
:403DC000C6F10106CAF80060DAF800309944002200232046294602F089FC08B9302202E0CDF81C9006E0079B994503D9591C07911A70F8E7079B159AC8EB03034046136052
:403E000008B0BDE8F08773B503460029B8BF494203F8022BB4BF2D222B220929427019DD0DF1070216460A2591FBF5F405FB14113031092C02F8011D2146F5DC3031541E1C
:403E400002F8011CB4421A460AD214F8012B03F8012BF7E730241A46214402F8024B5970101A02B070BD00002DE9F04F91B00C46DDF8688016461F46054601F081FD0368FF
:403E80000893184600F0F4FC00230E93D8F800300990073323F0070303F1080294F818A0D4F800B0C8F80020D3E90023C4E91223D4E9128929F000430B93CDF828804FF018
:403EC000FF32A74BDDE90A0102F042FCA0B94FF0FF32A34BDDE90A0102F01CFC60B9002200234046494602F00BFC10B12D2384F843309C4B9C4A0AE042464B4640464946BB
:403F000002F026FC002800F09281984B984ABAF1470F8CBF90469846032323612BF0040323604FF000093DE0BAF1670F00F08A81BAF1470F00F08681236000210DF13302DE
:403F40000193636805900292009342464B460691CDF810A0CDF80CE02846FFF7F3FE0AF0DF03472B804600F08481BAF1650F0D9900F28D810139524604F150000D91FFF782
:403F800042FF0E9A8318012A8146236100F37C812268D10700F178819DF8333013B12D2384F84330009733460FAA2146284600F09FF9013002D14FF0FF3096E123685A05D7
:403FC00001D4236965E0BAF1650F40F2D58000220023D4E9120102F089FB78B30123654A31462846B8470130E5D00E9B0D9A9A420BDB2368D80708D423689B0740F11181DA
:404000004FF0000804F1190906E1099B089A31462846B8470130CED04FF0000804F11A090E9B013B9845E7DA01234A4631462846B8470130BFD008F10108F1E70D9B002B5B
:4040400029DC01234B4A31462846B8470130B2D00D9B23B90E9B13B92368D907CCD5099B089A31462846B8470130A4D04FF0000904F11A0A0D9B5B42994509DA01235246F4
:4040800031462846B847013095D009F10109F1E70E9B4246A7E00E9AA36D9A42A8BF1A46002A914606DC4FF0000A29EAE97904F11A0B11E01346314642462846B8470130F5
:4040C000F1D178E701235A4631462846B84701303FF471AF0AF1010AA36DC9EB03029245F0DB08EB03090D9A0E9B9A420FDB2368DA070CD40E9B0D9A9844C9EB08089B1AFC
:404100009845A8BF9846B8F1000F08DC0FE0099B089A31462846B8470130EBD14BE743464A4631462846B84701303FF444AF4FF0000928EAE87804F11A0A09E001235246BD
:4041400031462846B84701303FF435AF09F101090D9A0E9B9B1AC8EB03039945EEDB4BE7FFFFEF7F3C7008104070081044700810487008104C7008100E9A012A01DCDB077E
:4041800038D50123424631462846B84701303FF412AF099B089A31462846B84701303FF40AAF00220023D4E9120102F09FFA20B14FF0000804F11A0A0EE00E9B08F1010292
:4041C000013B19E00123524631462846B84701303FF4F1AE08F101080E9B013B9845F1DB4B4604F1500231462846B84701307FF403AFE0E60123424631462846B8470130BE
:40420000EED1D8E601234A4631462846B84701303FF4D1AE08F10108E3680F9A9B1A9845F0DBE0680F9B9842B8BF18465DE06268531C0EA84BF480630DF1340E7FF474AE6F
:40424000062201E012B90122626075E6002106910DF133018DE80C00236005904246CDF810A0CDF80CE002914B462846FFF76AFD80460D9BD81C02DB626893421DDDAAF197
:40428000020A5FFA8AFA70E60133236184E6BAF1660F14D10029636807DD216113B92268D2071DD501330B4419E013B92268D00701D5023313E0012311E04FF0670A0D9B09
:4042C0000E9A934205DB22682361D10708D5013305E0002BD4BFC3F102030123134423610D9BA3654FF0000956E611B0BDE8F08F2DE9F04791461F460A698B68DDF8208092
:404300009342B8BF1346C9F8003091F8432006460C4612B10133C9F800302368990642BFD9F800300233C9F80030256815F0060510D104F1190A07E00123524639463046F5
:40434000C04701301AD00135E368D9F800209B1A9D42F1DB94F843302268003318BF012392060FD5E1185A1C302081F84300224494F8451082F84310023303E04FF0FF3001
:40438000BDE8F08704F1430239463046C0470130F4D02268D9F80050E36802F00602042A08BF5D1B2269A3680CBF25EAE57500259342C4BF9B1AED184FF000091A344D4530
:4043C00009D00123224639463046C0470130D5D009F10109F3E70020BDE8F0872DE9F04317460A7E85B06E2A984606460C460C9B01F1430E00F0AE8011D8632A22D009D8A4
:40440000002A00F0BB80582A40F0CA8081F84520834955E0642A1ED0692A1CD0C0E0732A00F0B08009D86F2A2ED0702A40F0B8800A6842F020020A603EE0752A24D0782AF7
:404440003AD0ADE01A6801F14205111D1960136884F84230A8E021681A6811F0800F02D0111D196008E011F0400F02F10401196002D0B2F9003000E01368002B3CDA2D22FD
:404480005B4284F8432037E021681A6811F0800F02D0111D196007E011F0400F02F10401196001D0138800E01368227E5C496F2A14BF0A2208221BE078225A4984F84520C6
:4044C0002268186812F0800F00F104051D6003D1550601D5038800E00368D00744BF42F0200222601BB9226822F0200222601022002084F8430001E049490A226568A56089
:40450000002D08DB206820F0040020602BB9002D7DD175460CE0002B79D07546B3FBF2F002FB1033CB5C05F8013D03460028F5D1082A0BD12368DA0708D5236962689A4228
:40454000DEBF302305F8013C05F1FF35C5EB0E0323612EE008681A68496910F0800F03D0101D1860136808E010F0400F02F104001860136801D0198000E0196000232361E3
:40458000754616E01A68111D1960156862680021284601F065FA08B1401B6060636804E004F1420584F8422001232361002384F84330CDF800803B4603AA21463046FFF75E
:4045C00097FE013002D14FF0FF3026E023692A4639463046C0470130F5D023689B0710D5002504F1190907E001234A4639463046C0470130E7D00135E368039A9B1A9D4241
:40460000F2DBE068039B9842B8BF184605E00B7884F8423004F142058AE705B0BDE8F0834E7008105F7008100FB40A4B13B51C6824B1A36913B9204601F018F905AB049AC4
:40464000A1680193204601F021FE02B0BDE8104004B070471043020870B50E46054618B183690BB901F002F9AB69AC6813B9284601F0FCF8224B9C4201D16C6808E0214B03
:404680009C4201D1AC6803E01F4B9C4208BFEC68A3891B0701D523693BB92146284600F057F910B14FF0FF3070BD013EA36816F8011F013BA36091B1002B04DAA2699342F9
:4046C00006DB0A2904D023685A1C22601970EDE72246284600F0E8F80130E7D1E2E7002B08DA22460A21284600F0DEF80130D9D00A2070BD23680A205A1C2260187070BD33
:4047000080700810A0700810C0700810024B01461868FFF7A1BF00BF104302082DE9F7431D464F4B1E6804460F46904626B1B36913B9304601F09AF84A4B9C4201D174685A
:4047400008E0494B9C4201D1B46803E0474B9C4208BFF468B8F1020F04D0B8F1010F79D8002D77DB2146304601F016F8616B41B104F14403994202D0304601F0B1FC0023AA
:4047800063630023A3616360A3891B0603D52169304601F0A5FCA38923F44A6323F00303B8F1020FA3811ED001AB6A462146304601F0EAF8A3891843A0810DB9009D00E0C6
:4047C0002FBB284601F040F90746D0B9DDF80090A94502D14FF0FF3006E0484601F034F9074678B9F6E70020A38943F00203A3810023A36004F147032360236101236361E4
