:020000041008E2
:4000000000780408EB0208100D00000051030810510308105103081051030810000000000000000000000000000000004D0308104D030810000000004D0308104D030810DA
:400040004D0308104D0308104D0308104D0308104D0308104D0308104D0308104D0308104D0308104D0308104D0308104D0308104D0308104D0308104D0308104D03081000
:400080004D0308104D0308104D0308104D0308104D0308104D0308104D0308104D0308104D0308104D0308104D0308104D0308104D0308104D0308104D0308104D030810C0
:4000C0004D0308104D0308104D0308104D0308104D0308104D0308104D0308104D0308104D0308104D0308104D0308104D0308104D0308104D0308104D0308104D03081080
:400100004D0308104D0308104D0308104D0308104D0308104D0308104D0308104D0308104D0308104D0308104D0308104D0308104D0308104D0308104D0308104D0308103F
:400140004D0308104D0308104D0308104D0308104D0308104D0308104D0308104D0308104D0308104D0308104D0308104D0308104D0308104D0308104D0308104D030810FF
:400180004D0308104D0308104D0308104D0308104D0308104D0308104D0308104D0308104D0308104D0308104D0308104D0308104D0308104D0308104D0308104D030810BF
:4001C0004D0308104D0308104D0308104D0308104D0308104D0308104D0308104D0308104D0308104D0308104D0308104D0308104D0308104D0308104D0308104D0308107F
:400200004D0308104D0308104D0308104D0308104D0308104D0308104D0308104D0308104D0308104D0308104D0308104D0308104D0308104D0308104D0308104D0308103E
:400240004D0308104D0308104D0308104D0308104D0308104D0308104D0308104D0308104D0308104D0308104D0308104D0308104D0308104D0308104D0308104D030810FE
:400280004D0308104D0308104D03081010B5054C237833B9044B13B10448AFF300800123237010BD8449020800000000FC710810084B10B51BB108490848AFF30080084811
:4002C000036803B910BD074B002BFBD0BDE81040184700BF0000000088490208FC71081054430208000000007047FFF7FDFF72B6104C114DAC4209DA21686268A368043BB5
:40030000A2BFC858D050FAE70C34F3E70B490C4A00209142BCBF41F8040BFAE709480A490860BFF34F8F00F035FA00F00FFA00F005F9FEE700720810187208108449020856
:40034000D04004080040020808ED00E0FEE7FEE700B504207146084202D0EFF3098001E0EFF30880043000F019FFFEE710B502F05DF802F023F8002418E0012002F030F885
:40038000114B1B6803EB83039A00104B1A44536823B94FF476710E4800F0F0FE00210D4801F0FEF80C4B23F814000134B4F57A4FE3DB084C204601F0B7F8236823F000431F
:4003C0002360002010BD00BF884B0208406E08104068081000001D41D04B020800231A4604E0204931F913100A440133B3F57A4FF7DB30B41C48A0FB023242F30F301B4B15
:4004000018800022144615E0164D35F912301B1A9BB219B225F81210002901DDA14207DC002906DA4942A14203DD5B429CB200E01C460132B2F57A4FE6DB00220BE0094940
:4004400031F91230C3EBC32393FBF4F303F5006321F812300132B2F57A4FF0DB002030BC704700BFD04B0208D34D6210D03F040838B5094C02256560084804F047F9FFF7E7
:4004800075FFFFF7ABFF0122054B1A70A560054804F03CF9002038BD8005324060680810A04902087C68081010B50822124B5A60124804F02BF903F05BF800240BE0104BAD
:4004C00033F91430C3F30B030E4AC2F800317D2000F048FE0134B4F57A4FF0DB094A136823F0004313600822034B9A60064804F00DF9002010BD00BF0000324098680810B9
:40050000D04B020800001441B468081070B5094804F0FCF800240AE0074D08266E60962000F008FEAE60962000F004FE0134022CF2DD70BDD06808100000324008B562B6F9
:4005400001F0ACFF01F0EEFF144B1868002302221946406804F0E2F8114804F065F8114804F0D4F802F09AFA02F048FA0028F9D101F0EEFF002002F005F908B1FFF778FF83
:40058000012002F0FFF80028ECD0074B1B7813B1FFF78AFFE6E7FFF7B9FFE3E710430208F4680810FC680810A049020808B5012000F04CFD08BD00BF704700BF5C4AD2F81F
:4005C000803303F00F0303F1D00152F8212002F00702032A04D0042A05D092B9554914E0554A116811E003F1C002514951F8222002F01F02112A06D0132A04D04FF4FA4180
:4006000003E04E4901E04FF400418BBB484BD3F8902502F00100D3F88825C2F30172D3F8883513F0405F07D0414BD3F88835C3F30173012B02D102E0012300E0002303B1F4
:4006400008B9032A46D13A48D0F88025C2F31103D0F88425C2F30C02D0F88005C0F300600130B1FBF2F202FB03F2B2FBF0F131E0012B2FD12E4BD3F8402602F00100D3F843
:400680000026C2F30172D3F8003613F0405F07D0274BD3F80036C3F30173012B02D102E0012300E0002303B108B9032A12D12048D0F8002602F07F02D0F80036C3F30423A4
:4006C000D0F80006C0F3044002FB01F2B2FBF3F2B2FBF0F1164BD3F88033C3F3011321FA03F215494A601648D0F89030C3F3072301330069000E0130B2FBF0F08860B2FBA0
:40070000F3F3CB600B6103F5742202F23F220D48A0FB0202C2F387420A7503F2E7330A4AA2FB03239B098B61DB03CB61704700BF0000264000127A008C42020800366E01C3
:400740000000214083DE1B43D34D621008B50D4800F086FDFFF730FFFFF730FF00221146042000F03BFA084800F0CEFA074B1B6893F8513013B1064800F036FB00F0FCF836
:4007800008BD00BF0C6C0810A4490208D43F04084469081008B500F05CFD074AD2F8883043F47003C2F88830BFF34F8FBFF36F8F00F053FD08BD00BF00ED00E010B5044675
:4007C0002146034800F02CFF0028F9D010BD00BF00006640054BD3F80833C3F30803002BF8D0024BD3F84003704700BF000066401F4B98422DD00CD840282ED003D8E8B189
:40080000102828D02FE0802829D0B0F5807F28D029E0184B984228D006D8B0F1204F0DD0154B984212D01EE0144B98420AD00133984209D0023B984215D101E0002070476A
:400840000F4870470F4870470F4870474FF4A0007047074870470D4870470D4870470D487047034870470C4870474FF4A400704706005200010000F0090000A0040000F0F9
:40088000010052000200520003005200010050000200500005005200FF00520038B5124B1B6893F83130012B04D840F2C3110F4800F064FC0C4B1D682A6AB5F8B03013442F
:4008C0002C46D5F8B420D358002B0BDB084B1868FFF78EFF6B6801229A6063689B68002BFBD138BD034838BDD43F040890690810244B0208020050001A4B186128B1022392
:400900000370FF23437000234380174B1B6893F850202AB300B583B0B3F93830ADF80030002301931149684600F0CAFBBDF90030002B08DB590903F01F03012202FA03F307
:400940000B4A42F82130084B1B6893F8513023B102220849012000F0F3FA03B05DF804FB704700BF244B0208D43F0408C543020800E100E07D44020808B50248FFF7BCFF03
:4009800008BD00BF384B02082DE9F04104460D46174698469DF81860072903D9D921354800F0ECFB37F00F0303D0DA21314800F0E5FBB8F1010F03D9DB212E4800F0DEFB80
:4009C00036F01F0303D0DC212A4800F0D7FB22680123AB4022EA030308F0010808FA05F843EA08032360244B1B6893F87D100B59A8000F22824023EA020207F00F0303FA25
:400A000000F717430F51072D04D94FF422711B4800F0B4FB36F01F0304D040F28921174800F0ACFB144B1B689A69A41AE4095B6924011919032D0DD81959ED001F22AA40E4
:400A400021EA020206F01F0606FA05F515431D51BDE8F081043D4A68ED001F23AB4022EA030306F01F0606FA05F51D434D60BDE8F08100BFD0690810D43F0408106A08105E
:400A800038B50B4B1B68D3F8B4301B58002B0DDA0D4604460B0C1B0423B140F2D521054800F06CFBA9B26160002038BD024838BDD43F0408506A081001008A0038B5036885
:400AC000002B01DA002300E0094B73B90D460446C2600B0C1B0423B140F2BB21054800F04DFBA9B2A160002038BD014838BD00BF01008A00506A081038B504460D4619B9EA
:400B00009921084800F03AFB074B1B68D3F8B4301B59002B03DAE3682B60002038BD034838BD00BF906A0810D43F040801008A00254B1B6893F8313083423AD900293AD0F6
:400B40000B6813F01F0F38D170B50D4604461E4B1B6893F83130984204D340F2C3111B4800F00CFB184B1B68186AB3F8B03004FB0304174E34602A68D2080021686803F0DB
:400B8000D9F800212046FFF77BFF346825B940F293310E4800F0F2FA2A4600212046FFF78DFF60B900210A4B1868FFF769FF40B970BD08487047074870470648704706485F
:400BC00070BD054870BD00BFD43F0408506A08103C4B020803018A0001018A0010B504461346B2B9A9B9124B1B6893F83130984204D340F2C3110F4800F0C0FA0C4B1B6860
:400C00001A6AB3F8B03004FB03240B4B1C60002010BD43B149B1084A51609360111D2046FFF786FF10BD054810BD044810BD00BFD43F0408506A08103C4B020803018A00FE
:400C40002DE9F0411B4B1B68DC68236883422CD90D464609A0EB4610012303FA00F819B900F0F7FA074600E00027124B18680368002B01DA002300E00F4B83B9626852F80D
:400C8000263018EA030F05D023EA080342F82630002400E0094C0021FFF7F2FE00E0084C25B9384600F0D9FA00E0064C2046BDE8F08100BF3C4B020801008A000201880086
:400CC0000301880004018A000B4B1B68DB681A6882420CD94109A0EB4110012202FA00F05B6853F82130184203D004487047044870470448704700BF3C4B020801018800EE
:400D000004018A0000018800024B1B680BB9014B18607047484B02082DE9F8430446884691461D46089F2C4B1B681BB9B5212B4800F024FA284B1B682C2000FB04F01C181B
:400D4000EEB21E50C5F3072363602D0CA560244B1B6893F831309E4204D340F2C311214800F00CFA1E4B1B68196AB3F8B02006FB02162661666893F832309E4204D340F25A
:400D8000DF11184800F0FAF9154B1B681D6A803605EB46156561A668330C1B0423B14FF4FF71104800F0EAF9330C1B0423B140F2FF110C4800F0E2F9B3B243EA0646AE6032
:400DC000C4F81C90C4F820800023A36117B1B7F90030A381BDE8F883484B0208D06A0810D43F0408506A0810F0B58FB0044618B95221274800F0C2F9A369072B03D956211F
:400E0000234800F0BBF9E36A1BB95821204800F0B5F9236B1BB959211D4800F0AFF907AD04F114060FCE0FC537682F6002AD26460FCE0FC533682B60164B1B68B3F93620B0
:400E4000079B1344ADF83030089B0D93A26AE16A0CAD00953B460A98FFF75EFF00210091069B0A460598FFF757FF216B284600F027F9BDF93030002B08DB590903F01F03E5
:400E8000012202FA03F3044A42F821300FB0F0BDD06A0810D43F040800E100E0F8B506460F461D4614461AB9FD211F4800F066F91E4B1B681BB9FE211B4800F05FF91B4B04
:400EC0001B682C2101FB063001FB07314B68012202FA03F31B04466802FA06F60269EAB18F69EFB91268002A01DA002200E0104AC2B92288134323600369DC6001238B61F8
:400F00004D620469330C1B0423B140F2BB21094800F034F9B2B2A2600020F8BD0648F8BD0648F8BD0548F8BDD06A0810484B020801008A00506A081004028A0007028A0035
:400F4000F8B505460F4616460E4B1B6823B94FF4AF710D4800F012F90A4B1B682C2404FB0534236A23B94FF4B171074800F006F9E369B34204D9236A43F826700020F8BDA0
:400F80000248F8BD484B0208D06A08100A028A0070B582B000230193044620B940F2D111284800F0EBF8236923B94FF4E971254800F0E4F8636923B940F2D311214800F0D0
:400FC000DDF8236A23B94FF4EA711E4800F0D6F86369DD682A0C20D012041A601B682069194B1B68D3F8B430C358002B15DA01A9FFF782FD60B9019803681E0CDBB2E26915
:40100000934206D2226A52F8233013B1984700E0002631462069FFF733FDADB275B16369ADB21D601B68636A1BB198470023636202E0A36A03B198470023A36163691B6803
:4010400002B070BDD06A0810D43F040810B50446074B1B6823B940F2B111064800F08EF8034B1B682C2000FB0430FFF791FF10BD484B0208D06A081038B50D4B9A680D4B7B
:401080009A420FD10D46044621B940F237110A4800F074F804F11003064A52F8230042F8235038BD1030054B53F8200038BD00BF00ED00E000400208106B081000000810FD
:4010C00048B338B504460D464368072B03D93221134800F053F8B4F900306268002B08DB5201D2B203F1604303F5614383F8002305E003F00F035201D2B20A49CA540A4BE5
:401100009A680A4B9A4208D12946B4F90000FFF7B3FF002038BD06487047002038BD00BF106B081014ED00E000ED00E0004002080100560010B5044605E0084B186800F058
:401140007FF8A4F50044B4F5004FF6D8044B186800FB04F000F074F810BD00BFA8420208A442020808B5034B1B7800FB03F000F067F808BDA042020801BEFEE738B50D465B
:40118000044C18220146204603F07AFBA5610020FFF7F2FFF0480208FEE700BF08B50268254BDA6142681A6282685A62C2689A620269DA6242691A6382695A63C2699A633A
:4011C0001E4A916AD963D16A1964516A5964516B9964926BDA64F1EE103A13F0900F27D0026A154B1A65426A5A65826A9A65C26ADA65026B1A66426B5A66826B9A66C26BEA
:40120000DA66026C1A67426C5A67826C9A67C26CDA67026DC3F88020426DC3F88420826DC3F88820C26DC3F88C20026EC3F89020FFF7B2FF08BD00BFF048020800ED00E0DD
:401240000230800803D001300238FCD100BF00BF7047EFF3108072B6704780F310887047014B1860704700BFD43F04082DE9F8430E46074618B93A217548FFF77FFF1EB9E2
:401280003B217348FFF77AFF002F00F0DA80002E00F0DA8032686F4B13401BB14A216C48FFF76CFF72686C4B13401BB14B216848FFF764FFB36813F0FC2F03D04C2164486A
:4012C000FFF75CFFF36813F0FC2F03D04D216048FFF754FF337D032B03D94E215C48FFF74DFFB369B3F5803F03D34F215848FFF745FFF36D072B03D950215548FFF73EFF81
:40130000336EB3F5803F03D351215148FFF736FF736EB3F5803F03D352214D48FFF72EFF736843F000437B60B3683B61F3687B613369BB61337D9B07FB61B3693B6233687C
:4013400003F46068736803F00409002435E02546A31D06EB83035A68404B13401BB163213B48FFF70BFFAB1D06EB8303596805F1200247F822105B6813F0012F0BD1B8F57D
:40138000606F08D1B9F1000F05D04FF47842344B23F8152003E00022314B23F81520726F02F11C7303F58033520093FBF2F31BB22C4A42F825300134E4B20F2CC7D9F36DAF
:4013C000C7F81832F36DC7F81032336EC7F82832336EC7F82032736EC7F83832736EC7F8303296F87030DBB1B36EB3F1804F03D382211748FFF7C2FEF36E23F44F0323F052
:40140000FF031BB183211248FFF7B8FE6FF04043C7F80433B36EC7F80033F36EC7F84433D7F8003F3F2B02D0D7F8003F13B90B23C7F8003F336843F400133B600020BDE81D
:40144000F8830948BDE8F8830748BDE8F88300BFC46C08100811DF0001FE302088CA887ED83F0408F83F04080100060038B50D46044618B9B5211748FFF780FE2CB30023F8
:40148000236063604FF0031222616261A361E361236206E003F12002002144F822100133DBB20F2BF6D90023C4F81832C4F82832C4F838325DB16FF04043C4F804330020C2
:4014C000C4F84003C4F8440338BD034838BD002038BD00BFC46C08100100060008B50368002B0ADBD0F8A032002BFBDB036843F0004303600220FFF735FE08BD38B5054633
:401500000C46012904D940F271110648FFF736FE012C04D16B6843F480336B6038BD01236B6238BDC46C0810436813F4803F03D0436823F480334360704700BF38B5044670
:401540000D46012904D94FF4F0711148FFF716FED4F8103203F00103012D06D00AE0D4F8103203F00103013A00E00A4A1BB9002AF5D100E0074A33B10123C4F81032D4F8DC
:401580001032002038BD0AB9034838BD034838BDC46C081055555501020006000300060038B505460C460F2904D940F27B210648FFF7E4FD0F2C04D8603455F8240080B258
:4015C00000E0002000B238BDC46C081010B4D0F8003303F00F03072B06D900230DE0D0F84043CC54013300E000239342F7D306E0D0F8404321F8134001339342F8D35DF810
:40160000044B704710B51446D0F80833C3F308039A4200D31C462246FFF7D8FF204610BD036813F4006F01D0802200E04022D0F80832C3F30803934203D0C0F8401201201C
:4016400070470020704700BF10B4D0F8003203F00F03072B06D900230DE0CC5CC0F84042013300E000239342F7D306E031F81340C0F8404201339342F8D35DF8044B704736
:4016800010B51446036813F4006F01D0802200E04022D0F80832C3F30803D31AA34200D81C462246FFF7D0FF204610BD2DE9F84305460C46036813F4006F02D04FF08008DE
:4016C00001E04FF04008D5F8007207F00F07A26A012A19D9D4F82490E262561EB9F1000F00D026B940F273512548FFF747FD324649462846FFF7C4FFA36A1B1AA362072F25
:4017000000D9400048446062D5F80832C3F30803984533D0A36A012B30D10023A362072F02D8636A1E7801E0636A1E88FFF791FDC5F840624FF40073C5F8803FD5F8803FD0
:40174000FFF78BFDD5F8883F23F4007222F0010242F4007623F4EE6323F0030323B140F22A410848FFF70AFDC5F8886F236843F002032360236B0BB101209847BDE8F8836A
:40178000006D0810406D08102DE9F04105460C46036813F4006F01D0802600E040267608A769D4F81C8017B1B8F1000F04D14FF499613148FFF7E2FC424639462846FFF71D
:4017C00021FF236A03442362E3691B1AE36173BBA368FBB1E3689E4201D8013E00E05E1E2B6813F4006F01D0802300E040239E4204D34FF420712148FFF7C0FCD5F80433BD
:4018000023F0FF03F6B21E43C5F804630123C5F8C83F02E00023C5F8C83F636823F001036360236B33B304209847BDE8F081A169D5F8002302F00F02072A00D940000844F0
:40184000A0619E4216D95C1E2B6813F4006F01D0802300E040239C4204D34FF420710748FFF78CFCD5F8043323F0FF02E3B21343C5F80433BDE8F081006D0810406D0810B1
:40188000002800F0A48170B50546002900F0A18116460C460B78022B03D93F21A248FFF76DFC637B023BDBB2062B03D940219E48FFF764FCA37B3BB1022B05D0032B03D0FE
:4018C00041219948FFF75AFC94F82130012B03D942219548FFF752FC94F82830012B03D943219148FFF74AFC2378012B06D86368083B082B94BF0023012307E0A37F2BB126
:401900006368013B062B94BF002301231BB145218548FFF733FCA368053B042B03D946218148FFF72BFC6369FF2B03D947217E48FFF724FCA369FF2B03D948217A48FFF7C5
:401940001DFCA37C6BB1237833B9A368092B05D1A37B2BB1012304E0012302E0012300E000231BB14A217048FFF708FC636B23F4366323F00D031BB14C216B48FFF7FEFBE3
:40198000E36B23F4EE6323F003031BB14D216648FFF7F4FB2378022B01D1A37F13B16268013A00E00022237F13B14FF4803100E00021A368082B02D84FF4006300E00023E8
:4019C0000B4302F00F02134343F000732B60226B2B6813F4006F01D0802300E040239A4203D362215048FFF7C9FBA26B2B6813F4006F01D0802300E040239A4203D3632138
:401A00004948FFF7BBFB626A2B6813F4006F01D0802300E040239A4203D364214248FFF7ADFB23781B0603F040732B64637F0BB1402200E00022A37C13B14FF4806300E0A2
:401A400000231343227C12B14FF4807200E000221343627C12B14FF4007200E000221A43E36A013B1B0403F470231343627B013A02F007021343A27B120102F030021343AF
:401A8000AB64237B13B14FF4807200E00022E37B23B92378022B03D1012302E0012300E0002313B14FF4007300E000231A43A368013B03F00F031343C5F80033227DA36964
:401AC0001B0403F47F031343C5F81033E26AD5F8003303F00F0303339A4201D3102A03D97A211148FFF74AFBE37F23B12378012B03D0002302E0002300E0012313B14FF479
:401B0000807200E00022637B013B03F007031A43A37B1B0103F0300313436B64237B2BB14FF4807203E000BF846D08100022A368013B03F00F0313432278012A02D14FF4BF
:401B4000803200E000221343C5F8003294F83030C5F8043394F8203013B14FF0007200E0002294F82130012B02D14FF0807300E00023134394F82820012A02D14FF480320B
:401B800000E00022134394F8242013432B6594F83830C5F80432636B23F4926323F002031B051B0DC5F8C83FE36B23F08C035B055B0DC5F8883F76B1002070603060B0603F
:401BC000F0603062F0623063044B736370BD04487047034870BD002070BD00BFEFCDAB000160AA000B694A69934202D34869181A7047CA694869101A184470472DE9F04100
:401C000007460D46036813F4006F02D04FF0800801E04FF040084FEA5808D7F80863C6F308062C6926E00134EB689C4200D100246B699C420FD12B6B0BB1082098476B69D3
:401C40009C4208D10023C7F8C83F0CB1013C13E0EC68013C10E0D7F84023D7F8003303F00F03072B02D8AB681A5502E0AB6823F81420013E002ED6D12C61EC682946384669
:401C8000FFF7B0FF201A804519D908B1441E00E000243B6813F4006F01D0802300E040239C4204D34FF420710648FFF767FAD7F8040320F0FF03E0B21843C7F80403BDE831
:401CC000F08100BF406D081038B504460D46D0F8003E13F0080F35D0D0F8CC3F13F448730AD04A681A434A60C0F8C03FD0F8C03F0B6B0BB110209847D4F8CC3F13F4006F0C
:401D000009D06B6843F400636B604FF40063C4F8C03FD4F8C03FD4F8CC3F13F0010F11D0EB6923B129462046FFF72EFD05E0AB681BB129462046FFF761FF0123C4F8C03FAF
:401D4000D4F8C03FD4F8003E13F0040F2ED0D4F88C3F13F4A0630AD02A681A432A60C4F8803FD4F8803F2B6B0BB120209847D4F88C3F13F0010F08D029462046FFF796FC30
:401D80000123C4F8803FD4F8803FD4F88C3F13F4007F0BD00022C4F8882F2B6823F001032B60EA622B6B0BB10220984738BD00BF002800F0E081F0B5032840F0D9800329E6
:401DC00021D809B9072A0AD9012901D10F2A06D9022901D1032A02D9032914D19AB9BA4B1D68AE6895F8710001FA00F7032404FA00F307EA030095F870301340034343F002
:401E00008043C6F80034B04B1B6893F83F0037281ED903291CD809B9072A0AD9012901D10F2A06D9022901D1032A02D903290FD172B99D6893F8710001FA00F6032404FAF2
:401E400000F0304093F8703013400343C5F8DC3C012922D871B9072A56D89B4B18688468B0F87430234453F8220020F47F4043F8220049E0012947D10F2A45D8924B1B68F9
:401E80009868B3F87630184450F8223023F47F0323F47F4340F8223036E002291BD1032A32D8894C23689868B3F87830184450F8223023F47F0323F47F4340F8223020684E
:401EC0008468B0F87830234453F8220020F0F80043F8220018E0032916D1AAB97A4C20688568B0F87A302B4453F82200C0B243F8220020688468B0F87A30234453F822002D
:401F000020F0F80043F82200032900F2338109B9072A0DD9012901D10F2A09D9022901D1032A05D9032940F02581002A40F02281654B1D68AC6895F87360032000FA06F7B0
:401F400095F8703095F8726003FA06F63E4395F87170B940B840014031431A4041EA020343F00043C4F80034AB68D3F80034F0BD032921D809B9072A0AD9012901D10F2A68
:401F800006D9022901D1032A02D9032914D19AB94D480668B76896F8714001FA04FE032505FA04F00EEA000496F870001040204340F08040C7F800044348006890F83F4006
:401FC000372C1ED903291CD809B9072A0AD9012901D10F2A06D9022901D1032A02D903290FD172B9866890F8714001FA04F7032505FA04F43C4090F8700010402043C6F820
:40200000DC0C012932D8A9B9072A00F28480FF2B00F281802C480468A568B4F87400284450F8224024F47F441B029BB2234340F8223070E001296ED10F2A6CD8B3F5803FE9
:4020400069D2214800688468B0F87600044454F8220020F47F0020F47F401B0223F07F4323F0FF03034344F8223054E002292DD1032A50D8B3F5803F4DD205981F284AD815
:40208000114D28688468B0F87800044454F8220020F47F0020F47F401B0223F07F4323F0FF03034344F822302B689868B3F87830184450F8223023F0F804059BDB00DBB23C
:4020C000234340F8223026E0D43F0408032922D10ABBB3F1807F1ED205981F281BD8264D28688468B0F87A00044454F82200C0B240EA032344F822302B689868B3F87A307E
:40210000184450F8223023F0F804059BDB00DBB2234340F8223003292CD809B9072A0AD9012901D10F2A06D9022901D1032A02D903291FD1F2B9104B1D68A86895F873606C
:40214000032404FA06F795F8703095F8726003FA06F63E4395F87170B940BC40214031431A4041EA020343F00043C0F80034AB68D3F80034F0BD7047D43F040870B582B027
:402180000C46054618B949215448FEF7F7FF1CB94A215248FEF7F2FF002D00F09A80002C00F099802378012B03D958214B48FEF7E5FF636833B1B3F1807F03D059214748DE
:4021C000FEF7DCFF237A042B03D95A214348FEF7D5FF638963B1B3F5807F09D0B3F5007F06D0B3F5407F03D05B213C48FEF7C6FFE3687BB1B3F5800F0CD0B3F5400F09D0CD
:40220000B3F1006F06D0B3F1086F03D05C213348FEF7B4FF237C012B03D95D212F48FEF7ADFF636933B1B3F1804F03D05E212B48FEF7A4FFA3693F2B03D95F212748FEF734
:402240009DFFA36903F03F0263891343217A8A1ED2B2022A01D843F08053042901D143F000536268134362691A43E66816432378012B02D10023012201E001230022217C56
:40228000012902D142F4807201E043F4807394F82410A9620121A962C5F8B020C5F8B430E369C3F30B03C5F80031236AC3F30B03C5F8043194F8253043B1E36AA26A94F8CD
:4022C0002610207A246B0094FFF772FD2E60002002E0034800E0024802B070BDC46D08100100660070B539B900240AE015F8010BFEF764FA013402E016460D460024B44281
:40230000F4DB204670BD00BF70B561B900240FE0FEF760FAC0B2287001340A2808D00D2806D0013502E016460D460024B442EFDB204670BD38B504461E4B1A68916892F8A4
:40234000703003F00203DBB243F08043C1F800340369FF2B0AD89168B2F874200A44916821F47F411B029BB20B439360114B1A68906892F87310032303FA01F592F87030B9
:4023800092F8721003FA01F1294303F002030B4343F00043C0F800349368D3F80034064D00212846FFF762F8A1682846FEF75EFF38BD00BFD43F040800001D4108B5074BD9
:4023C0005B6813F4802F04D001210448FFF796F808BD00210148FFF791F808BD00001D4108B501460348FFF7A9F808B1002008BD012008BD00001D4108B5084B1B7963B945
:4024000007490848FEF75CFE044B5B792BB90122024B5A710448FFF78DFF08BD884B02085924081078690810406E081008B5084B1B7913F0010F06D1FFF7DEFF044A13796C
:4024400043F0010313710348FFF748F808BD00BF884B020800001D4110B5094BD3F81042072C04D940F231610648FEF787FE044BC3F81042D3F81022D3F8103210BD00BF9D
:4024800000001D41046E081008B502490248FFF71BFC08BD384004080000664008B5114B1B785BB9104A11491148FFF7E9F911491148FEF705FE01220A4B1A700E4BB3F98F
:4024C0000030002B08DB590903F01F03012202FA03F30A4A42F82130054A136843F00043136008BD8E4B020838400408CC6E081000006640892408108869081000E100E0CD
:4025000008B5074B1B7833B900F0FCF800F04EF90122034B1A7000F03DF800F09BFB08BD8F4B020810B5FFF7EBFF044610B900F065FB044614B900F0B1FA044600F05EFA57
:402540000028FBD100F03CF900F07EF9204610BD70B50E4D0026344614E0630904330C4A52F8233004F01F02D34013F0010F07D0284600F047F806462946204600F090F8B6
:4025800020350134012CE8D9304670BD406F08107040040870B500230AE0124A191D02EB8100002444604FF0FF3042F821000133002BF2D00C4C02230FE06668A27E094BEB
:4025C0002B4400211976012A05D1206918B1228BF17901F0AFFB20342B465D1E002BECD170BD00BF70400408406F081030B40B884A889C1A0025CD800079844200DDCC8047
:4026000030BC70472DE9F0418468038B456890F81A8000270BE042462146284600F02AF9074621462846FFF7E1FF0A3433465E1E002BF0D13846BDE8F08100BFF0B50C8B3F
:402640008D684F680A69012324E010EA030403D17E88B979314402E07988BE79891BEE88B14201D3002100E01946A14202D01678013E1670A14201D014783CB920EA0300EC
:40268000084309B9F97900E0012111705B000A350132744604F1FF3E002CD6D1F0BD00BF38B504468A7E154B03441D7E012A04D12846FFF7C3FF054604E04FF43871104806
:4026C000FEF75CFD0D4B23441D76620904F01F04012303FA04F445B90432084B03EB8202536823EA0404546038BD0432034B03EB820253681C43546038BD00BF70400408F9
:402700000C6F0810F8B51D4E54220021304601F011FB40F6E84333804FF41063738041F66A03B3800823738304233377144C04F144050FCDC6F81E00C6F82210C6F8262014
:40274000C6F82A3007CDC6F82E00C6F83210C6F836202046043402230CE0A268238B04E010F8013B53720A320B46591E002BF7D120342B465D1E002BEFD1F8BD7040040886
:402780003C6F081001280DD800F01F02012303FA02F24009031D044800EB83035B6802EA0300704700207047704004080023024AD380024A1360704770400408984B02081F
:4027C000704700BFC9B2062902D083180021197130F8121000EB42035980024400231372704700BF70B506460D46012305E0224629463046FFF7E6FF23465C1E002BF6D120
:4028000070BD00BF08B5064B03EB4013986801EB81014A00997E1044FFF7E4FF08BD00BF406F081038B50546064B03EB40131B8B04E021462846FFF7E5FF23465C1E002B05
:40284000F7D138BD406F081010B5022303E02046FFF7E8FF23465C1E002BF8D110BD00BF00FA03F3C2F5807001FB00F102FB0310000A70472DE9F04106460D4617460123A5
:4028800042E035F8140005EB44035988884207D3431A2A194FF0000E82F808E0012201E00B1A002292B996F805E073450ED92B191B7A327A934205D3224639462846FFF785
:4028C00081FF20E02A19013313721CE096F804E0734504D996F805E0734514D89AB9FBB2062B10D005EB040898F804E0082301224EEA0121FFF7B4FFC0F30F2205EB440355
:402900005A8088F8040023465C1E002BB9D10020BDE8F08130B49F280ED940F2FE3399420AD9244CA1FB04454B1B05EB53035B0AC3EB832399422FD09F280DD9B1F5FF7F53
:402940000AD91D4CA1FB04454B1B05EB53031B0AC3EB4323994221D09F280CD97E290AD9164CA1FB04454B1B05EB53039B09C3EBC313994214D09F2814D93E2914D9104C01
:40298000A1FB04454B1B05EB53035B09C3EB831399420BD000200AE0042008E0032006E0022004E0002002E0002000E0012030BC704700BF05104000214080001108040229
:4029C000054110044A1E032A01D8102300E0002379B183B1642202FB03F3B3FBF0F3002001E001305B00092BFBD90A2B04D9013802E0002000E00020C0B27047024BD868D9
:402A000000F08000704700BF70400408034B0340034AD0681843D060704700BF8000010070400408034B0340034AD06820EA0300D0607047800001007040040810B50F4B3A
:402A4000DB6813F4803F0ED101280ED8430904330A4A52F8233000F01F02D34013F0010F05D1012404E0112402E0012400E000240CB900F033FD204610BD00BF7040040802
:402A800008B5054BDB6813F4803F03D100F0F4FB002008BD112008BD70400408114BDB6813F0800F19D110B500244FF0FF3311E02046FFF7C3FF034658B91CB901220A4B8B
:402AC0001A7002E00022084B1A70FFF7D9FF034606E00134012CEBD902E0112318467047184610BD704004089C4B020830B583B00025074C08E02179002300930E222068C5
:402B0000FDF742FF08340135032DF4D903B030BD9C6F081038B51B4A53780133DBB253705078FFF78BFF044650B9164B5B78DBB2012B02D10022134B1A70FFF7A1FF1EE094
:402B4000104B5B78DBB2012B10D10F4D2B8901332B818020FFF766FFEB6823F07F43EB60EB6843EA0464EC60002408E0064BDA6822F07F42DA60DA6842EA0062DA60002C19
:402B8000C9D138BD9C4B02087040040810B50146124BB3F90030002B0DDB5A0903F01F03012404FA03F320320D4840F82230BFF34F8FBFF36F8F094C2046FEF781FAB4F9A7
:402BC0000030002B08DB590903F01F03012202FA03F3034A42F8213010BD00BF8069081000E100E010B5012801D8002400E0012414B9282100F040FA204610BD38B5002471
:402C0000254604E02046FFF7EDFF05430134012CF8D9284638BD00BFF8B5002415E00C4B03EB44135D682E88204600F099FC07463146FFF76FFE064601463846FFF7C2FEAA
:402C40000001C0B2304328730134012CE7D9F8BD406F081008B5FFF7DFFFFFF747FF00F05DF9002008BD00BF38B51F4D2A6893691E4CE31ADB0951691B01CA5822F4F852F4
:402C8000CA50022363602B6893F87D20135923F0F00343F0600313512A689369E31ADB0951691B01CA5822F4F812CA50042363602B6893F87D20135923F4706343F4C063F5
:402CC00013510120FEF74EFA2B6893F87D20135923F0F00313512B6893F87D20135923F47063135138BD00BFD43F04088003324042890388901E10FB03F080B2704700BF9A
:402D000008B52A4BB3F90030002B0DDB5A0903F01F03012101FA03F32032254941F82230BFF34F8FBFF36F8F224B4FF483721A601B68214BD3F8D020D3F8D4309BB213FA6A
:402D400082F31E4A128892B2934204D91B4A13889BB2538002E09BB2184A5380184B1B689847184BDB6813F0800F0FD1164A124B1A604FF4407203F5C6731A60134A03F559
:402D80001D731A601F22A3F598731A60074BB3F90030002B08DB590903F01F03012202FA03F3034A42F8213008BD00BF8069081000E100E0F000364000003640A84B0208EC
:402DC000AC4202087040040820100C80800E43013F4B1A683F4B1B7813445A7A3E4B13433E4A136000233E4A53803E493E4A1160012102F5C0721160112102F5807211601D
:402E00004FF08071043211603C3213600622374B1A60374A28331A6041F2101204331A60344AC43B1A6040F2033203F5A8731A604FF4FA6300E0013B2F4A126812F0010FAE
:402E400001D0002BF7D12C4B1B6813F0010F03D04FF44272284B1A60284B1A7F284BB3FBF2F3284A934204D9274A934203D8302302E0202300E0402343F0004343F44123A7
:402E8000194A136040F20132204B1A60002320490B6001F580710B6004310B603C310B6038390B601B482831086042F2102004310860C4390B601F21174B1960A3F5F073B2
:402EC0004FF4837119601B680B4B1A60704700BFC4400408BC6F0810800E430100043640A84B020820100C80000036408802364001010100AA000500400336407040040864
:402F000080F0FA02001BB70000366E018C0136408001364001030300D002364010B5FFF7A3FE48490B6893F87D00474BC25822F0F002C2500A6892F87D10CA5822F47062A8
:402F4000CA504FF4837203F57F3303F5B8731A60002404331C60022204331A6088331C6004331C6041F2415204331A604FF4407204331A60354A03F51D731A60344AA3F56E
:402F800004731A60334A10331A6004331C607C331C6004331C6004331C6008331C60FEF758F92D4A136823F480531360FEF755F923222A4B1A604FF0807204331A60FEF708
:402FC00048F9274A136823F0805323F4801343F080531360FEF741F9224A234B1A6042F2102204331A600C331C601F2210331A600F2230331A60042210331A6004331C60A4
:403000000C331C604FF4427220331A60174AA3F550731A60164B1B7F013BFF2B0BD8094A12689068B2F87410425822F47F421B029BB213434350FFF759FD0E48FFF7A6FDA5
:4030400010BD00BFD43F040880033240800E4301AA0005002A00000C94023640A0023640A802364001030300B002364020100C8070400408012D08102DE9F84381460E465C
:40308000294C04EB4014D4F80880284BC3F800806068FFF72DFE264B18801B889BB203FB06F3244EA6FB03367609E37E257F05FB03F5002109E01D4A136800201880136896
:4030C000402058720A3313600131A942F3D32024402700E01C464846FFF7B0FCFFF7D0FC154BDB6813F0800FFAD1104BC3F8008000210FE00D4B1B681A88964203D25A7A90
:4031000022EA07025A725A7A22435A720A33074A13600131A942EDD3C4F347032746002CD8D1BDE8F88300BF406F0810C4400408A84B02081F85EB5170400408F8B5054641
:40314000FEF787F806462F682C79072C04D94FF471712048FEF712F8A4001F4B1B6893F87D00C2590F23A34022EA0301062202FA04F30B43C3512C682D79072D04D94FF4D3
:4031800022711448FDF7FAFF134B1A689369E31ADB0952691B01D118032D0BD8D158ED001F20A84021EA00000A2101FA05F50543D5500BE0043D4B68ED001F22AA4023EACA
:4031C00002020A2303FA05F515434D603046FEF744F8F8BDC06F0810D43F0408F8B50546FEF737F806462F682C79072C04D94FF471711F48FDF7C2FFA4001E4B1B6893F8D0
:403200007D10CB590F2202FA04F423EA0404CC512C682D79072D04D94FF422711448FDF7ADFF144B1A689369E31ADB0952691B01D118032D0BD8D158ED001F20A84021EA90
:403240000000042101FA05F50543D5500BE0043D4B68ED001F22AA4023EA0202042303FA05F515434D603046FDF7F7FFF8BD00BFC06F0810D43F040810B50022104B1A7096
:40328000104B1B689968104A11601A7F0F4CA280D87EE0801B68A36003EBC000E060FFF74DFFA068FFF79AFF094A0A4B1A608020FFF7ACFB1720FDF755FFFFF789FD10BD24
:4032C000A44B0208A04B0208C4400408A84B0208E9330810AC42020870B50546FDF7B9FF06462C682D79072D04D94FF422711148FDF744FF104B1A689369E31ADB09526919
:403300001B01D118032D08D8D158ED001F2000FA05F521EA0505D55008E0043D4B68ED001F2202FA05F523EA05054D603046FDF794FF70BDC06F0810D43F0408F8B50646A8
:40334000FDF787FF074634683579072D04D94FF422712348FDF712FF224B1A689369E31ADB0952691B01D118032D08D8D158ED001F2000FA05F521EA0505D55008E0043D9D
:403380004B68ED001F2202FA05F523EA05054D6035683479072C04D94FF471711048FDF7EDFEA4000F4B1B6893F87D0042590F23A34022EA0301062202FA04F30B43435176
:4033C00035683479072C04D940F281310448FDF7D5FE0123A3406B603846FDF73EFFF8BDC06F0810D43F040810B52C4B19682C4B18782C4C23889AB263889BB2D31A21F86F
:403400001030E068FFF768FF274A13780133DBB21370A388013B9BB2A3805BB1E0680830E060FFF78BFE1D4A13680A331360FFF7CFFC10BD1B4AD388013B9BB2D380D3B105
:4034400014469068FFF77AFFA0680830A060FFF7C5FE164B1A68137FA3801368D07E03EBC000E060FFF76AFE0C4A13680A331360FFF7AEFC10BD0B4B9868FFF75FFF0C4BF6
:403480001B7813B1FFF746FB10BD0A4A1389013313818020FFF7C6FA10BD00BFC4400408BC6F0810A84B0208A44B0208A04B02089C4B020870400408074B1B8A53B110B56C
:4034C000054CE068FFF708FFA068FFF737FF0023238210BD704700BFA84B020838B50446C2B2174B1A70FFF7E7FF164800EB4410154B186045686C892A88144B1A60284677
:40350000FFF7F6FB124B18802B7B013CC4F30B0444EA034444F040640E4B1C600E4B1B7F013BFF2B0BD80D4A12689068B2F87410425822F47F421B029BB21343435038BDF8
:403540009D4B0208406F0810A04B020814033640A84B02080002364070400408D43F0408024B03EB4010436858897047406F081008B5084B1B7833B907490848FEF7FEFD0C
:403580000122044B1A70054A136843F00043136008BD00BFBC4B0208007008100000144181F0004102E000BF83F0004330B54FEA41044FEA430594EA050F08BF90EA020F19
:4035C0001FBF54EA000C55EA020C7FEA645C7FEA655C00F0E2804FEA5454D4EB5555B8BF6D420CDD2C4480EA020281EA030382EA000083EA010180EA020281EA0303362DEC
:4036000088BF30BD11F0004F4FEA01314FF4801C4CEA113102D0404261EB410113F0004F4FEA03334CEA133302D0524263EB430394EA050F00F0A780A4F10104D5F1200EF4
:403640000DDB02FA0EFC22FA05F2801841F1000103FA0EF2801843FA05F359410EE0A5F120050EF1200E012A03FA0EFC28BF4CF0020C43FA05F3C01851EBE37101F000450E
:4036800007D54FF0000EDCF1000C7EEB00006EEB0101B1F5801F1BD3B1F5001F0CD349085FEA30004FEA3C0C04F101044FEA445212F5800F80F09A80BCF1004F08BF5FEA2D
:4036C000500C50F1000041EB045141EA050130BD5FEA4C0C404141EB010111F4801FA4F10104E9D191F0000F04BF01460020B1FA81F308BF2033A3F10B03B3F120020CDA05
:403700000C3208DD02F1140CC2F10C0201FA0CF021FA02F10CE002F11402D8BFC2F1200C01FA02F120FA0CFCDCBF41EA0C019040E41AA2BF01EB0451294330BD6FEA040415
:403740001F3C1CDA0C340EDC04F11404C4F1200220FA04F001FA02F340EA030021FA04F345EA030130BDC4F10C04C4F1200220FA02F001FA04F340EA0300294630BD21FA4F
:4037800004F0294630BD94F0000F83F4801306BF81F480110134013D4EE77FEA645C18BF7FEA655C29D094EA050F08BF90EA020F05D054EA000C04BF1946104630BD91EAA3
:4037C000030F1EBF0021002030BD5FEA545C05D14000494128BF41F0004130BD14F580043CBF01F5801130BD01F0004545F0FE4141F470014FF0000030BD7FEA645C1ABF53
:40380000194610467FEA655C1CBF0B46024650EA013406BF52EA033591EA030F41F4002130BD00BF90F0000F04BF0021704730B54FF4806404F132044FF000054FF0000119
:4038400050E700BF90F0000F04BF0021704730B54FF4806404F1320410F0004548BF40424FF000013EE700BF42004FEAE2014FEA31014FEA02701FBF12F07F4393F07F4F98
:4038800081F06051704792F0000F14BF93F07F4F704730B54FF4607401F0004521F0004120E700BF50EA010208BF704730B54FF000050AE050EA010208BF704730B511F00A
:4038C000004502D5404261EB41014FF4806404F132045FEA915C3FF4DCAE4FF003025FEADC0C18BF03325FEADC0C18BF033202EBDC02C2F1200300FA03FC20FA02F001FAF8
:4039000003FE40EA0E0021FA02F11444C1E600BF70B54FF0FF0C4CF4E06C1CEA11541DBF1CEA135594EA0C0F95EA0C0F00F0DEF82C4481EA030621EA4C5123EA4C5350EA67
:40394000013518BF52EA033541F4801143F4801338D0A0FB02CE4FF00005E1FB02E506F00042E0FB03E54FF00006E1FB03569CF0000F18BF4EF0010EA4F1FF04B6F5007FC6
:4039800064F5407404D25FEA4E0E6D4146EB060642EAC62141EA55514FEAC52040EA5E504FEACE2EB4F1FD0C88BFBCF5E06F1ED8BEF1004F08BF5FEA500E50F1000041EBC1
:4039C000045170BD06F0004646EA010140EA020081EA0301B4EB5C04C2BFD4EB0C0541EA045170BD41F480114FF0000E013C00F3AB8014F1360FDEBF002001F0004170BD6B
:403A0000C4F10004203C35DA0C341BDC04F11404C4F1200500FA05F320FA04F001FA05F240EA020001F0004221F0004110EBD37021FA04F642EB06015EEA430E08BF20EAB0
:403A4000D37070BDC4F10C04C4F1200500FA04F320FA05F001FA04F240EA020001F0004110EBD37041F100015EEA430E08BF20EAD37070BDC4F1200500FA05F24EEA020E8A
:403A800020FA04F301FA05F243EA020321FA04F001F0004121FA04F220EA020000EBD3705EEA430E08BF20EAD37070BD94F0000F0FD101F00046400041EB010111F4801FAF
:403AC00008BF013CF7D041EA060195F0000F18BF704703F00046520043EB030313F4801F08BF013DF7D043EA0603704794EA0C0F0CEA135518BF95EA0C0F0CD050EA4106C4
:403B000018BF52EA4306D1D181EA030101F000414FF0000070BD50EA410606BF1046194652EA430619D094EA0C0F02D150EA013613D195EA0C0F05D152EA03361CBF10463A
:403B400019460AD181EA030101F0004141F0FE4141F470014FF0000070BD41F0FE4141F4780170BD70B54FF0FF0C4CF4E06C1CEA11541DBF1CEA135594EA0C0F95EA0C0FBA
:403B800000F0A7F8A4EB050481EA030E52EA03354FEA013100F088804FEA03334FF0805545EA131343EA12634FEA022245EA111545EA10654FEA00260EF000419D4208BF77
:403BC000964244F1FD0404F5407402D25B084FEA3202B61A65EB03055B084FEA32024FF480104FF4002CB6EB020E75EB030E22BFB61A754640EA0C005B084FEA3202B6EBF7
:403C0000020E75EB030E22BFB61A754640EA5C005B084FEA3202B6EB020E75EB030E22BFB61A754640EA9C005B084FEA3202B6EB020E75EB030E22BFB61A754640EADC0089
:403C400055EA060E18D04FEA051545EA16754FEA06164FEAC30343EA52734FEAC2025FEA1C1CC0D111F4801F0BD141EA00014FF000004FF0004CB6E711F4801F04BF0143E9
:403C80000020B4F1FD0C88BFBCF5E06F3FF6AFAEB5EB030C04BFB6EB020C5FEA500C50F1000041EB045170BD0EF0004E4EEA113114EB5C04C2BFD4EB0C0541EA045170BD85
:403CC00041F480114FF0000E013C90E645EA060E8DE60CEA135594EA0C0F08BF95EA0C0F3FF43BAF94EA0C0F0AD150EA01347FF434AF95EA0C0F7FF425AF104619462CE7F1
:403D000095EA0C0F06D152EA03353FF4FDAE1046194622E750EA410618BF52EA43067FF4C5AE50EA41047FF40DAF52EA43057FF4EBAE12E702440346934202D003F8011BBB
:403D4000FAE770472DE9F04788B0002B149F1299109EDDF84CA01D4627F02007BBBF03F100431D4600232D231446B8BF1446462F0B7003D0452F03D1013601E0032300E0B2
:403D8000022307AA049206AA03928DE8480422462B4600F0DDFE472F804602D1119BDB0728D5462F08EB060911D198F80030302B0AD1002200232046294602F097FC18B994
:403DC000C6F10106CAF80060DAF800309944002200232046294602F089FC08B9302202E0CDF81C9006E0079B994503D9591C07911A70F8E7079B159AC8EB03034046136052
:403E000008B0BDE8F08773B503460029B8BF494203F8022BB4BF2D222B220929427019DD0DF1070216460A2591FBF5F405FB14113031092C02F8011D2146F5DC3031541E1C
:403E400002F8011CB4421A460AD214F8012B03F8012BF7E730241A46214402F8024B5970101A02B070BD00002DE9F04F91B00C46DDF8688016461F46054601F081FD0368FF
:403E80000893184600F0F4FC00230E93D8F800300990073323F0070303F1080294F818A0D4F800B0C8F80020D3E90023C4E91223D4E9128929F000430B93CDF828804FF018
:403EC000FF32A74BDDE90A0102F042FCA0B94FF0FF32A34BDDE90A0102F01CFC60B9002200234046494602F00BFC10B12D2384F843309C4B9C4A0AE042464B4640464946BB
:403F000002F026FC002800F09281984B984ABAF1470F8CBF90469846032323612BF0040323604FF000093DE0BAF1670F00F08A81BAF1470F00F08681236000210DF13302DE
:403F40000193636805900292009342464B460691CDF810A0CDF80CE02846FFF7F3FE0AF0DF03472B804600F08481BAF1650F0D9900F28D810139524604F150000D91FFF782
:403F800042FF0E9A8318012A8146236100F37C812268D10700F178819DF8333013B12D2384F84330009733460FAA2146284600F09FF9013002D14FF0FF3096E123685A05D7
:403FC00001D4236965E0BAF1650F40F2D58000220023D4E9120102F089FB78B30123654A31462846B8470130E5D00E9B0D9A9A420BDB2368D80708D423689B0740F11181DA
:404000004FF0000804F1190906E1099B089A31462846B8470130CED04FF0000804F11A090E9B013B9845E7DA01234A4631462846B8470130BFD008F10108F1E70D9B002B5B
:4040400029DC01234B4A31462846B8470130B2D00D9B23B90E9B13B92368D907CCD5099B089A31462846B8470130A4D04FF0000904F11A0A0D9B5B42994509DA01235246F4
:4040800031462846B847013095D009F10109F1E70E9B4246A7E00E9AA36D9A42A8BF1A46002A914606DC4FF0000A29EAE97904F11A0B11E01346314642462846B8470130F5
:4040C000F1D178E701235A4631462846B84701303FF471AF0AF1010AA36DC9EB03029245F0DB08EB03090D9A0E9B9A420FDB2368DA070CD40E9B0D9A9844C9EB08089B1AFC
:404100009845A8BF9846B8F1000F08DC0FE0099B089A31462846B8470130EBD14BE743464A4631462846B84701303FF444AF4FF0000928EAE87804F11A0A09E001235246BD
:4041400031462846B84701303FF435AF09F101090D9A0E9B9B1AC8EB03039945EEDB4BE7FFFFEF7F3C7008104070081044700810487008104C7008100E9A012A01DCDB077E
:4041800038D50123424631462846B84701303FF412AF099B089A31462846B84701303FF40AAF00220023D4E9120102F09FFA20B14FF0000804F11A0A0EE00E9B08F1010292
:4041C000013B19E00123524631462846B84701303FF4F1AE08F101080E9B013B9845F1DB4B4604F1500231462846B84701307FF403AFE0E60123424631462846B8470130BE
:40420000EED1D8E601234A4631462846B84701303FF4D1AE08F10108E3680F9A9B1A9845F0DBE0680F9B9842B8BF18465DE06268531C0EA84BF480630DF1340E7FF474AE6F
:40424000062201E012B90122626075E6002106910DF133018DE80C00236005904246CDF810A0CDF80CE002914B462846FFF76AFD80460D9BD81C02DB626893421DDDAAF197
:40428000020A5FFA8AFA70E60133236184E6BAF1660F14D10029636807DD216113B92268D2071DD501330B4419E013B92268D00701D5023313E0012311E04FF0670A0D9B09
:4042C0000E9A934205DB22682361D10708D5013305E0002BD4BFC3F102030123134423610D9BA3654FF0000956E611B0BDE8F08F2DE9F04791461F460A698B68DDF8208092
:404300009342B8BF1346C9F8003091F8432006460C4612B10133C9F800302368990642BFD9F800300233C9F80030256815F0060510D104F1190A07E00123524639463046F5
:40434000C04701301AD00135E368D9F800209B1A9D42F1DB94F843302268003318BF012392060FD5E1185A1C302081F84300224494F8451082F84310023303E04FF0FF3001
:40438000BDE8F08704F1430239463046C0470130F4D02268D9F80050E36802F00602042A08BF5D1B2269A3680CBF25EAE57500259342C4BF9B1AED184FF000091A344D4530
:4043C00009D00123224639463046C0470130D5D009F10109F3E70020BDE8F0872DE9F04317460A7E85B06E2A984606460C460C9B01F1430E00F0AE8011D8632A22D009D8A4
:40440000002A00F0BB80582A40F0CA8081F84520834955E0642A1ED0692A1CD0C0E0732A00F0B08009D86F2A2ED0702A40F0B8800A6842F020020A603EE0752A24D0782AF7
:404440003AD0ADE01A6801F14205111D1960136884F84230A8E021681A6811F0800F02D0111D196008E011F0400F02F10401196002D0B2F9003000E01368002B3CDA2D22FD
:404480005B4284F8432037E021681A6811F0800F02D0111D196007E011F0400F02F10401196001D0138800E01368227E5C496F2A14BF0A2208221BE078225A4984F84520C6
:4044C0002268186812F0800F00F104051D6003D1550601D5038800E00368D00744BF42F0200222601BB9226822F0200222601022002084F8430001E049490A226568A56089
:40450000002D08DB206820F0040020602BB9002D7DD175460CE0002B79D07546B3FBF2F002FB1033CB5C05F8013D03460028F5D1082A0BD12368DA0708D5236962689A4228
:40454000DEBF302305F8013C05F1FF35C5EB0E0323612EE008681A68496910F0800F03D0101D1860136808E010F0400F02F104001860136801D0198000E0196000232361E3
:40458000754616E01A68111D1960156862680021284601F065FA08B1401B6060636804E004F1420584F8422001232361002384F84330CDF800803B4603AA21463046FFF75E
:4045C00097FE013002D14FF0FF3026E023692A4639463046C0470130F5D023689B0710D5002504F1190907E001234A4639463046C0470130E7D00135E368039A9B1A9D4241
:40460000F2DBE068039B9842B8BF184605E00B7884F8423004F142058AE705B0BDE8F0834E7008105F7008100FB40A4B13B51C6824B1A36913B9204601F018F905AB049AC4
:40464000A1680193204601F021FE02B0BDE8104004B070471043020870B50E46054618B183690BB901F002F9AB69AC6813B9284601F0FCF8224B9C4201D16C6808E0214B03
:404680009C4201D1AC6803E01F4B9C4208BFEC68A3891B0701D523693BB92146284600F057F910B14FF0FF3070BD013EA36816F8011F013BA36091B1002B04DAA2699342F9
:4046C00006DB0A2904D023685A1C22601970EDE72246284600F0E8F80130E7D1E2E7002B08DA22460A21284600F0DEF80130D9D00A2070BD23680A205A1C2260187070BD33
:4047000080700810A0700810C0700810024B01461868FFF7A1BF00BF104302082DE9F7431D464F4B1E6804460F46904626B1B36913B9304601F09AF84A4B9C4201D174685A
:4047400008E0494B9C4201D1B46803E0474B9C4208BFF468B8F1020F04D0B8F1010F79D8002D77DB2146304601F016F8616B41B104F14403994202D0304601F0B1FC0023AA
:4047800063630023A3616360A3891B0603D52169304601F0A5FCA38923F44A6323F00303B8F1020FA3811ED001AB6A462146304601F0EAF8A3891843A0810DB9009D00E0C6
:4047C0002FBB284601F040F90746D0B9DDF80090A94502D14FF0FF3006E0484601F034F9074678B9F6E70020A38943F00203A3810023A36004F147032360236101236361E4
:404800002AE0A946A38943F08003A3814D46B36913B9304601F02AF8B8F1010F08BFA389276004BF43F00103A381A389276103F0080080B2656158B113F001034FF000002E
:404840001DBF6D42A060A561A56008BF184603E0A06001E04FF0FF3003B0BDE8F08300BF1043020880700810A0700810C0700810034613F8012B002AFBD1181A0138704754
:4048800010B5034642B111F8014B03F8014B013A002CF7D11A4400E010BD934202D003F8014BFAE710BD0000F8B50F461446064618B183690BB900F0D9FF224B9C4201D17F
:4048C000746808E0204B9C4201D1B46803E01F4B9C4208BFF468A369A360A3891A0709D523693BB123682069181A63699842FDB20FDB08E02146304600F02AF80028F1D078
:404900004FF0FF30F8BD2146304600F045FF0028F6D1A368013BA36023685A1C22601F706269431C934204D0A389DB0707D50A2D05D12146304600F02FFF0028E0D12846EC
:40494000F8BD00BF80700810A0700810C0700810324B70B51D6806460C4625B1AB6913B9284600F083FF2E4B9C4201D16C6808E02C4B9C4201D1AC6803E02B4B9C4208BFD2
:40498000EC68B4F90C309AB215071DD4D00602D4092232603AE0510712D5616B41B104F14403994202D0304601F09AFB00236363A38923F02403A381002363602369236094
:4049C000A38943F00803A38123694BB9A38903F42073B3F5007F03D02146304600F0F8FFA28912F0010305D00023A36063695B42A36103E0920758BF6369A36023695BB98A
:404A0000B4F90C3003F0800080B230B143F04003A3814FF0FF3070BD002070BD1043020880700810A0700810C07008102DE9F74F03690C699C42804600F38380013C01F1AA
:404A400014074FEA840E00F1140657F8245006EB0E030193013556F82430B3FBF5F507EB0E09002D39D04FF0000A3846B446D34650F8042B93B205FB03A34FEA134A9BB21E
:404A8000C3EB0B03120CBCF800B005FB02A213FA8BF34FEA124A1FFA82FBDCF80020CBEB124202EB23429BB243EA024381454FEA224B4CF8043BDBD256F80E306BB9019B67
:404AC000043B9E421A4602D3C8F8104005E01268043B002AF8D1013CF3E7404601F029FA00282CDB013530464FF0000E57F8041BD0F800C08AB2C2EB0E03090C13FA8CF357
:404B0000C1EB1C4202EB23429BB243EA0243B9454FEA224E40F8043BE8D256F8242006EB840362B9043B9E421A4602D3C8F8104005E01268043B002AF8D1013CF3E72846E3
:404B400000E0002003B0BDE8F08F0000000000002DE9F04F456A97B08246239CCDE9022345B9102000F070FFCAF82400456085600560C560DAF82430196859B15A684A600D
:404B8000012393408B60504600F0FAFFDAF8243000221A60039BA04A002BBFBF01232360039B23F00043B8BF0393DDF80C80A4BF0023236028F000431B0D1B0593421DD129
:404BC000229A42F20F731360029B43B9934A944BC8F31300002814BF1846104600E09048249B002B00F04A85C37813B100F1080300E0C31C249A136000F040BDDDE90245B8
:404C0000002200232046294601F070FD074658B1229A01231360249B002B00F0228581481860013800F02ABD14AB019315AB009322462B46504601F0F7F9C8F30A560590DB
:404C400056B1C5F3130343F07F51204641F44011A6F2FF3611971DE0159B149E1E4406F23243202B0ADD029A06F21240C3F1400322FA00F008FA03F3184304E0C3F12000A7
:404C8000029B03FA00F0FEF7CDFD0123A1F1F871013E11930022644BFEF786FC58A3D3E90023FEF735FE58A3D3E90023FEF77EFC044630460D46FEF7C5FD55A3D3E9002375
:404CC000FEF726FE02460B4620462946FEF76EFC04460D4601F052FD0022834600232046294601F00DFD58B15846FEF7ABFD02460B462046294601F0F9FC08B90BF1FF3B84
:404D0000BBF1160F0DD8494901EBCB01DDE90223D1E9000101F012FD30B10BF1FF3B002300E00123109300E01090149B9E1B731E089343BFC3F10009002308934FF0000913
:404D4000BBF1000F07DB089BCDF834B05B4408930023099306E0CBF1000309930023CBEB09090D93209B092B27D8052BC4BF043B2093209BA3F10203CCBF00250125032B9A
:404D800020D8DFE803F0060E0204012302E0012308E000230C93219B002B1CDD069398461EE000230C93219B5B4403F1010806934346012BB8BF012312E00125002320930D
:404DC0000C9501E001230C934FF0FF33069398460022122303E00123069398461A462192DAF8244000226260042101F114029A421ED86268013262604900F6E7AFF300807E
:404E000061436F63A787D23FB3C8608B288AC63FFB799F501344D33F0000F07F70700810797008104D7008100000F83F207108106168504600F06FFEDAF8243020601B68D2
:404E40000793B8F10E0F00F25D81002D00F05A819DED027BBBF1000F8DED0E7B31DDA04A0BF00F0302EBC30393ED007B4FEA2B14E2068DED0A7B0CD59A4BDDE90E01D3E9DC
:404E80000823FEF76FFE04F00F04CDE90201032600E00226934D6CB1E30708D5DDE90A01D5E90023FEF734FDCDE90A01013664100835F0E7DDE90A23DDE90201FEF752FE57
:404EC00020E0CBF1000404B3854B864D04F00F0203EBC203D3E90023DDE90E01FEF718FDCDE9020124110023022654B1E70705D5D5E90023FEF70CFD013601236410083531
:404F0000F3E71BB1CDE9020100E00226109BEBB1DDE902450022744B2046294601F0F0FBA0B1B8F1000F11D0069B002B40F3E6800BF1FF330A9300226C4B20462946FEF767
:404F4000E7FC0136CDE90201069F02E0CDF828B047463046FEF776FCDDE90223FEF7D8FC0022634BFEF722FB0446A1F15075CFB90022604BDDE90201FEF716FB22462B469C
:404F8000CDE9020101F0DAFB002840F04182224605F10043DDE9020101F0B2FB002840F02E82ABE00C9A4E4B791E002A4AD003EBC103D3E9002300204F49FEF7D3FD22462C
:404FC0002B46FEF7F1FA079C05460E46DDE9020101F0D4FB1290FEF735FC02460B46DDE90201FEF7E1FA129B303304F8013B2A463346CDE9020101F083FB002840F0218346
:40500000DDE9022300203849FEF7CEFA2A46334601F076FB002840F0D280079BE31ABB426CDA0022314B28463146FEF771FC002205460E462D4BDDE90201FEF769FCCDE959
:405040000201C3E703EBC10122462B46D1E90001FEF75EFC079BCDE91201DC191D46DDE9020101F08BFB0646FEF7ECFB303602460B46DDE90201FEF797FA05F8016BAC4220
:40508000CDE902014FF0000223D11B4BDDE91201FEF78CFA02460B46DDE9020101F04EFB002840F08C80DDE9122300201249FEF77BFA02460B46DDE9020101F021FBE8B160
:4050C00014F8013C302B04F1FF3240F0BA821446F6E7064BFEF71CFCCDE90201BFE700BF20710810F87008100000F03F0000244000001C40000014400000E03FDDE90E3434
:40510000CDE90234159B002B7CDBBBF10E0F79DC8F4B03EBCB03D3E90067219B002B14DAB8F1000F11DC40F06C810022894B30463946FEF7EDFBDDE9022301F0F5FA4546C5
:405140004646002840F05F8166E1079C32463B46DDE90201FEF706FD01F010FB0546FEF771FB32463B46FEF7D3FB0B460246DDE90201FEF719FA05F1300E04F801EB079B3B
:40518000C3EB040EF045CDE902012ED102460B46FEF70CFA8046894602460B463046394601F0AEFA78B942464B463046394601F09DFA002800F04782E90704D443E2DDF888
:4051C00028B000E01C4614F8012C392A04F1FF3307D1079A9A42F5D1079930220BF1010B0A701A7801321A702DE200225A4BFEF78FFB00220023CDE9020101F077FA002817
:40520000A4D020E20C9A002A2DD0209A012A0ADC119A12B103F2334302E0149BC3F13603099D4C4615E0099B08F1FF35AB42BFBF099B0995EA1A0D9BB7BF9B185D1B0D9371
:405240000025B8F1000FB9BFC8EB090400234C464346089A01211A4450469944089200F02EFD064602E0099D0C9E4C465CB1089B002B08DDA342089AA8BF2346C3EB0909AA
:40528000E41AD31A0893099B002B1DDD0C9BABB185B131462A46504600F0ACFD059A01460646504600F014FD05990746504600F067FC0597099B5A1B06D000E0099A059907
:4052C000504600F097FD05900121504600F0F7FC0D9B05465BB31A460146504600F08AFD209B012B054618DC029B83B9039BC3F3130373B9039B23F000473F0D3F054FB192
:40530000089B013309F101090893012702E0002700E0029F0D9B73B100E000272B6905EB8303186900F07EFCC0F1200004E0209B012BD9DD0D9F0120089B184410F01F0040
:405340000ED0C0F12003042B08DDC0F11C0008E020710810000014400000244006D018461C30089B0344814404440893B9F1000F05DD4A460599504600F08AFD0590089B31
:40538000002B05DD29461A46504600F081FD0546109BEBB12946059800F0CBFD002817DA00230A220599504600F001FC0C9B05900BF1FF3B002B00F05881002331460A2202
:4053C000504600F0F4FB069B002B064637DC33E0B8F1000F2ADC209B022B27DDCDF81880069B83B929460522504600F0E0FB01460546059800F09DFD00280DDC03E03D46EF
:4054000000E000252E46219B079C6FEA030B0AE0DDF828B03D463E46079B079A5C1C312313700BF1010BB0460026F7E00C9BCDF8188023B9079CB1E0209B022BD0DC002C2E
:4054400005DD31462246504600F022FD06469FB17168504600F05FFB326902320446920006F10C010C3000F04BFB01222146504600F00EFD804600E0B046029BDDF81C907B
:4054800003F00103089329460598FFF7CFFA3146044600F13007059800F04BFD424602902946504600F061FDC36802463BB901460990059800F03DFD099A034600E0012366
:4054C00011465046099300F05BFB099B4BB9209A3AB9089A2AB9392F28D0029B002B1ADC1BE0029A002A04DB1AD1209AC2B9089AB2B9002B11DD01220599504600F0C8FCF4
:405500002946059000F015FD002802DC05D1FA0703D5392F0AD004F1310709F101040CE0002B09F101040BDD392F05D1392389F8003009F1010954E0013789F800706DE04B
:40554000079B069A04F8017CE31A9342A1463AD000230A220599504600F029FB464505904FF000034FF00A023146504604D100F01EFB0646804686E700F019FB4146064628
:4055800000230A22504600F012FB80467BE700230A220599504600F00AFB059029460598FFF744FA00F1300704F8017B079B069AE31A9342EBDB079B012AACBF9B180133FB
:4055C000B0469946002601220599504600F060FC2946059000F0ADFC002802DC15D1FB0713D54C4614F8013C392B04F1FF3209D1079B934204D10BF1010B3123079A02E030
:405600001446EFE70133137008E04C4614F8013C302B04F1FF3201D11446F7E72946504600F0AEFAB8F1000F0DD02EB1464503D03146504600F0A4FA4146504600F0A0FA84
:4056400001E0DDF828B00599504600F099FA0023229A23700BF101031360249B1BB11C6001E008480AE0079808E0069B002B3FF7E1AE209B022B7FF7DDAEB1E617B0BDE8DA
:40568000F08F00BF4C7008108A892DE9F041054610070C4659D44B68002B02DC0B6C002B17DDE66AAEB102F48052002392B22F682B600AB1606D15E0216A01232846B047BA
:4056C000411C0FD12B686BB11D2B01D0162B03D12F600020BDE8F081A38943F04003A381BDE8F081A3895A0705D56368C01A636B0BB1236CC01A00230246E66A216A28463C
:40570000B047431CA38906D129681D293AD8214ACA40D60736D500226260D9042269226004D5421C01D12B6803B96065616B2F600029CED004F14403994202D0284600F076
:40574000CFFC00206063BDE8F0810F69002FC0D093070E6808BF4B690F6018BF0023C7EB06088B6002E00744C0EB0808B8F1000FAFDD43463A46216AA66A2846B047002832
:40578000F1DCA38943F04003A3814FF0FF30BDE8F08100BF0100402038B50B6905460C46DBB118B183690BB900F060F80C4B9C4201D16C6808E00B4B9C4201D1AC6803E0A7
:4057C000094B9C4208BFEC68B4F90C302BB121462846BDE83840FFF757BF002038BD00BF80700810A0700810C0700810014900F0A9B800BF99570810002310B50446036056
:405800004360836081814366C281036143618361194608225C30FEF78DFA054B6362054BA362054BE362054B2462236310BD00BFE5640810076508103F650810636508100F
:4058400070B568234D1E5D430E4605F1740100F095FC044640B1002180E842000C30A06005F16802FEF766FA204670BD836910B5044633BB8364C3640365124B124A1B6808
:405880008262984204BF0123836100F01FF86060204600F01BF8A060204600F017F80022E06004216068FFF7A7FF01220921A068FFF7A2FF02221221E068FFF79DFF01239E
:4058C000A36110BD38700810ED570810F8B51C4B1E68B369074613B93046FFF7C7FF4836B4687368013B04D4B4F90C507DB16834F8E733680BB13668F2E704213846FFF718
:405900009FFF30600028F6D10C233B60F8BD4FF6FF73E3810123A38165662560A560656025616561A5610822294604F15C00FEF701FA6563A563A564E5642046F8BD00BF26
:40594000387008102DE9F8438046894600F14804002694B1A5686768013F0CD4AB89012B07D9B5F90E30013303D029464046C84706436835F0E72468EBE73046BDE8F883F5
:40598000004870471443020870B50E46B1F90E10002990B014461D4606DA00232B60B3891A060ED540230EE001AA00F001FE0028F3DB029A02F47042A2F500535A425A410D
:4059C0002A604FF480630020236010B070BD00008B8973B59E0705460C4610D401AB6A46FFF7D2FF00990646284600F0C7FB68B9B4F90C309A0522D443F00203A38104F1ED
:405A00004703236023610123636118E00D4BAB62A389206043F08003A381009B6361019B20614BB1B4F90E10284600F0D3FD18B1A38943F00103A381A0893043A08102B01A
:405A400070BD00BFED570810024B0146186800F095BB00BF10430208000000000000000001F0FF01102A2BDB10F0070F08D010F8013B013A8B422DD010F0070F42B3F6D134
:405A8000F0B441EA012141EA014122F007047FF000070023F0E80256083C85EA010586EA010685FA47F5A3FA87F586FA47F6A5FA87F68EB9EED1F0BC01F0FF0102F0070227
:405AC00032B110F8013B013A83EA010313B1F8D10020704701387047002D06BF35460338073815F0010F07D1013015F4807F02BF013015F4C03F0130F0BC0138704700BFEC
:405B000010B5431E0A44914204D011F8014B03F8014FF8E710BD70B5456A04460E463DB91020FFF791FF6062456085600560C560656AEB6843B1636ADB6853F8260078B14A
:405B4000026843F8262017E021220421204600F0B9FA636AE860DB68002BECD1002070BD012101FA06F56A1D9200204600F0AAFA0028F3D04660856000230361C36070BDCD
:405B800070B5446A06460D463CB91020FFF75CFF7062446084600460C4603DB1736A6A68DB6853F82210296043F8225070BD2DE9F0410D691F4606460C4601F1140E002364
:405BC000DEF8000081B202FB01710F0C000C02FB007089B2013301EB00419D424FEA10474EF8041BECDCD7B1A3689D4212DB616830460131FFF78FFF2269023204F10C014C
:405C0000804692000C30FFF77BFF21463046FFF7B7FF444604EB850301355F6125612046BDE8F081030C1B0413B90004102300E0002310F07F4F04BF0002083310F0704F1D
:405C400004BF0001043310F0404F04BF80000233002803DB420003D5581C70471846704720207047036813F007020BD0D90722D49A074BBF5B089B08036003604CBF012000
:405C80000220704799B209B91B0C102213F0FF0F04BF1B0A0832190704BF1B090432990704BF9B080232D90702D45B0805D00132036010467047002070472020704710B5D7
:405CC0000C460121FFF727FF01224461026110BD2DE9F74F14460A6923699A42B8BF0B468846BCBFA0461C46D8F81070D4F81090D8F80830D8F8041007EB09069E42C8BF22
:405D00000131FFF708FF00F1140505EB860C2B460022634502D243F8042BFAE704F1140208F1140102EB890301EB87070093009B0192934257D9B2F800B0BBF1000F23D074
:405D40008946AE464FF0000859F8044BBEF800A0A3B20BFB03A34FEA144ADEF8004043444FEA14480BFB0A8404EB1344F2469BB243EA04434F454FEA14484AF8043B01D902
:405D8000D646E1E7CEF80480019BB3F802A00432BAF1000F21D02B682C4689464FF00008B9F800E0B4F802B00AFB0EBEF044A3469BB243EA08434BF8043B59F8043BB4F870
:405DC00004E01B0C0AFB03E303EB18434F454FEA134801D95C46E3E763600435A7E75CF8043D13B9013E002EF9DC066103B0BDE8F08F00002DE9F843154612F0030206468C
:405E00000F4607D0013A214C002354F82220FFF7CEFE0746AD1036D0746A3CB91020FFF713FE7062446084600460C460D6F82480D8F808404CB940F271213046FFF73FFF22
:405E40000023C8F80800044603604FF00008EB070AD5394622463046FFF73AFF394681463046FFF78DFE4F466D100CD0206808B10446ECE7224621463046FFF729FF20607A
:405E8000C0F80080F4E73846BDE8F883E87008102DE9F0470C464FEA621A26694968A368564407469146751CAB4202DA01315B00FAE73846FFF72FFE0023804600F114010C
:405EC0001A46534503DA41F823200133F9E72AEAEA73206901EB830319F01F0904F1140101EB800E14D0C9F1200C0022086800FA09F002439A4643F8042B51F8042B8E45F3
:405F000022FA0CF2F2D8CAF8042042B1B51C06E0043B51F8042B43F8042F8E45F9D8013D3846C8F810502146FFF72AFE4046BDE8F08703690A699B1A10B511D19200143010
:405F4000143183180A4453F8044D52F8041D8C4202D007D3012010BD9842F4D3002010BD184610BD4FF0FF3010BD2DE9F8430C460746114620461546FFF7DBFF061E08D1BB
:405F800031463846FFF7C7FD012303614661BDE8F883BCBF23462C4638466168BABF1D4601260026FFF7B7FD2B69C660266905F11409143404EB860709EB830800F11405CA
:405FC0004FF0000C54F8043B59F8042B1CFA83F11FFA82FE120CCEEB0101C2EB134303EB214389B24FEA234CC84541EA0343A64645F8043BE6D8BE450ED25EF8041B1CFA05
:4060000081F2131403EB114392B242EA03424FEA234C45F8042BEEE755F8043D0BB9013EFAE70661BDE8F8832DE9F34101211C46089E099D9046FFF76EFDC4F31303C4F318
:406040000A5407460CB143F480130193B8F1000F19D002A840F8088DFFF704FE009B48B1019AC0F1200102FA01F10B43C2407B61019200E07B61019BBB61002B14BF022107
:406080000121396107E001A8FFF7ECFD019B7B6101213961203034B1A4F2334404443460C0F1350009E007EB8103A0F2324030601869FFF7B7FDC0EB41102860384602B0AB
:4060C000BDE8F08138B502FB01F4214600F056F8054618B122460021FDF72CFE284638BD38B50546002946D051F8043C0C1F002BB8BFE41800F090FA1F4A1368114613B99E
:406100006360146032E0A3420ED92268A018834204BF18685B68636004BF121822600C6024E0A24203D813465A68002AF9D118681918A1420BD121680144581882421960E2
:4061400014D1106852685A60014419600EE002D90C232B600AE021686018824204BF10685268626004BF091821605C602846BDE8384000F052BA38BDC84B020870B5CD1CDF
:4061800025F0030508350C2D38BF0C25002D064601DBA94202D90C23336046E000F03CFA234B1C681A462146A1B10B685B1B0ED40B2B03D90B60CC18CD501EE08C420DBF0F
:4061C00063684B686360136018BF0C4615E00C464968E9E7174C23681BB9304600F072F920602946304600F06DF9431C18D0C41C24F00304A0420DD12560304600F00DFAB8
:4062000004F10B00231D20F00700C31A0ED05A42E25070BD211A304600F054F90130EBD10C233360304600F0F8F9002070BD00BFC84B0208C44B02089368013B002B10B4F5
:40624000936009DA9469A34202DBCBB20A2B03D15DF8044BFEF728BB1368581C10601970C8B25DF8044B7047F8B506460F461446D518AC4208D03A4614F8011B3046FFF75B
:40628000DBFF431CF5D100E00020F8BD2DE9F04F9DB00C4617460393064618B183690BB9FFF7E4FA7F4B9C4201D1746808E07E4B9C4201D1B46803E07C4B9C4208BFF4682C
:4062C000A38918070CD5236953B10023099320238DF8293030238DF82A30DFF8D4B144E021463046FEF734FB0028EED04FF0FF30D5E0039A111D12680391002A80F28C80C5
:40630000524243F002000792049098F800302E2B00F08480032298F800106548FFF7A0FB48B14023CBEB000003FA00F0049B1843049008F1010898F800105E488DF82810C5
:40634000062208F10107FFF78BFB002800F09580594B002B40F08880039B073323F0070308330393099B53440993B846454615F8013B1BB9B8EB07090FD003E0252BF9D073
:40638000A846F3E74B463A4621463046FFF76CFF01307FD0099B4B44099398F80030002B78D000234FF0FF3204930793059206938DF853301A930127052229783F48FFF72E
:4063C0004FFB05F10108049B38B13C4A801A07FA00F0184304904546EEE7D90644BF20228DF853201A0744BF2B228DF853202A782A2A3FF47EAF079A00210A20A846013581
:4064000098F80030303B092B03D800FB02320121F4E700293FF479AF079276E798F801302A2B0BD1039B1A1D1B680392002BB8BF4FF0FF3308F1020805936BE700230593E2
:4064400008F1010019460A258046013098F80020303A092A03D805FB01210123F4E7002B3FF458AF059155E703AB00932246144B04A93046FDF7F8FC07E003AB009322467A
:406480000F4B04A93046FDF7A9FFB0F1FF3F82467FF468AFA3895B063FF528AF09981DB0BDE8F08F80700810A0700810C0700810EE710810F2710810693E0810E8710810CE
:4064C0006962081038B5064C002305460846236000F09CF9431C02D1236803B12B6038BDCC40040810B50C46B1F90E1000F096F80028ABBF636DA3891B1823F48053ACBF3A
:406500006365A38110BD2DE9F0411F468B89DB0505460C46164605D502230022B1F90E1000F068F8A389B4F90E1023F48053A38132463B462846BDE8F04100F017B810B50A
:406540000C46B1F90E1000F055F8431CA38915BF606523F4805343F48053A38118BFA38110BDB1F90E1000F013B8000038B5074C054608461146002222601A46FBF7B2FE67
:40658000431C02D1236803B12B6038BDCC40040838B5064C002305460846236000F016F9431C02D1236803B12B6038BDCC40040838B5074C0023054608461146236000F086
:4065C0000DF9431C02D1236803B12B6038BD00BFCC40040838B5064C002305460846236000F004F9431C02D1236803B12B6038BDCC40040838B5074C054608461146002207
:4066000022601A4600F0FAF8431C02D1236803B12B6038BDCC4004087047704738B5074C054608461146002222601A46FBF76CFE431C02D1236803B12B6038BDCC40040886
:406640004FF0FF3C06E000BF4FF0010C02E000BF4FF0010C4DF804CD4FEA410C7FEA6C5C4FEA430C18BF7FEA6C5C1BD001B050EA410C0CBF52EA430C91EA030F02BF90EA24
:40668000020F0020704710F1000F91EA030F58BF994208BF90422CBFD8176FEAE37040F0010070474FEA410C7FEA6C5C02D150EA013C07D14FEA430C7FEA6C5CD6D152EAE7
:4066C000033CD3D05DF8040B704700BF8446104662468C461946634600E000BF01B5FFF7B7FF002848BF10F1000F01BD4DF808EDFFF7F4FF0CBF012000205DF808FB00BFF8
:406700004DF808EDFFF7EAFF34BF012000205DF808FB00BF4DF808EDFFF7E0FF94BF012000205DF808FB00BF4DF808EDFFF7CEFF94BF012000205DF808FB00BF4DF808ED59
:40674000FFF7C4FF34BF012000205DF808FB00BF4FEA410C7FEA6C5C02D150EA013C0AD14FEA430C7FEA6C5C02D152EA033C02D14FF0000070474FF0010070474FEA4102F6
:4067800012F5001215D211D56FF47873B3EB625212D94FEAC12343F0004343EA505311F0004F23FA02F018BF404270474FF00000704750EA013005D111F0004008BF6FF0F8
:4067C000004070474FF00000704700BF024B58221A604FF0FF307047CC400408024B58221A604FF0FF307047CC400408024B58221A600020704700BFCC400408024B58223B
:406800001A604FF0FF307047CC400408044A05491368002B08BF0B461844106018467047CC4B0208D0400408F8B500BFF8BC08BC9E467047F8B500BFF8BC08BC9E4670472B
:4068400047656E6572617465645F536F757263655C50536F43362F4144432E68000000005374617274656420766F696365207265636F7264696E672E2E2E0D0046696E693E
:406880007368656420766F696365207265636F7264696E672E0D0A005374617274656420766F69636520706C6179696E672E2E2E0D00000046696E697368656420766F698C
:4068C000636520706C6179696E672E0D0A0000004E6F207265636F7264696E672E205265636F726420766F6963652066697273742E0D0A001B5B324A1B5B48002D2D2D2D09
:406900002D2D2D2D2D2D2D2D2D2D2D2D2D2D2D2043617053656E736520566F6963655265706561746572206C6F67202D2D2D2D2D2D2D2D2D2D2D2D2D2D2D2D2D2D2D0D0A44
:40694000000000000300000001000000010000000000000005036000040000000100000000000000010000000604600008000000044B0208AD0508108A000000070000007E
:4069800031000000070000002E0000000700000047656E6572617465645F536F757263655C50536F43365C70646C5C647269766572732F7065726970686572616C2F6970CA
:4069C000632F63795F6970635F6472762E68000047656E6572617465645F536F757263655C50536F43365C70646C5C647269766572735C7065726970686572616C5C677055
:406A0000696F5C63795F6770696F2E630000000047656E6572617465645F536F757263655C50536F43365C70646C5C647269766572735C7065726970686572616C5C6770AF
:406A4000696F5C63795F6770696F2E680000000047656E6572617465645F536F757263655C50536F43365C70646C5C647269766572735C7065726970686572616C5C697068
:406A8000635C63795F6970635F6472762E68000047656E6572617465645F536F757263655C50536F43365C70646C5C647269766572735C7065726970686572616C5C697065
:406AC000635C63795F6970635F6472762E63000047656E6572617465645F536F757263655C50536F43365C70646C5C647269766572735C7065726970686572616C5C69702A
:406B0000635C63795F6970635F706970652E630047656E6572617465645F536F757263655C50536F43365C70646C5C647269766572735C7065726970686572616C5C737974
:406B400073696E745C63795F737973696E742E63000000000000204000002440000000400000000000002340000030400000314000009F40000022400000104002020202A4
:406B8000020202020210101D800017007500FF030602063604102000000000007FC0000000040000000000000019324B647D00804000080B100000000000FF012002001F2A
:406BC00000800004FF081018001000140018001C4044484C50000000081000000800000004000000041000000012000004210000002100000016000040114002C4130013FF
:406C00008013A013200000001C0000000000214000002540000001400000344000002440000031400000324000001F410000234000001140010101010101010101101010C3
:406C4000800019005500F0000501053B04101C01010000000FC000000004000001010101011D3A57789600082000101208000000001F00000010000F002000023F06080E1D
:406C800000080009000A000B24282C3034000000100000009000000088000000080000008000000004F0000000F00000400200002005A000D00100018001A0012000000023
:406CC0001000000047656E6572617465645F536F757263655C50536F43365C70646C5C647269766572735C7065726970686572616C5C7361725C63795F7361722E630000AF
:406D000047656E6572617465645F536F757263655C50536F43365C70646C5C647269766572735C7065726970686572616C5C7363625C63795F7363625F756172742E68007A
:406D400047656E6572617465645F536F757263655C50536F43365C70646C5C647269766572735C7065726970686572616C5C7363625C63795F7363625F636F6D6D6F6E2ED5
:406D80006800000047656E6572617465645F536F757263655C50536F43365C70646C5C647269766572735C7065726970686572616C5C7363625C63795F7363625F7561729C
:406DC000742E630047656E6572617465645F536F757263655C50536F43365C70646C5C647269766572735C7065726970686572616C5C63746461635C63795F6374646163D8
:406E00002E63000047656E6572617465645F536F757263655C50536F43365C70646C5C647269766572732F7065726970686572616C2F7361722F63795F7361722E6800006E
:406E40000000000001000000546E0810010000001B00000066CE205688000490D2000200020002000007000E00000000010000000000000000000000000000000000000067
:406E800000000000000000000000000000000000000000000000000000000000000000000000000000000000000000000000000001000000000000000000000000000000D1
:406EC000000000000000000072060000000000000C0000000800000000020000000000000000000000000000000000000000000000000000000000000B00000000000000F9
:406F000000000000000000000000000047656E6572617465645F536F757263655C50536F43365C43617053656E73655F50726F63657373696E672E63000000002020000050
:406F40009C6F08108E400408AA40040800000000944B0208092800000100010101000000AC6F08109C400408B440040800000000904B0208012800000100010101000000D3
:406F80006400640028280A031E002A0000006400640028280A031E002A00000000043240010000008000324000000000000432400200000080003240000000000000000024
:406FC00047656E6572617465645F536F757263655C50536F43365C70646C5C647269766572732F7065726970686572616C2F6770696F2F63795F6770696F2E68000000006C
:407000000100000000000000000000010000400001000000000000002200000000000000000000000100000000000000000000000000000043000000B0420208494E4600CE
:40704000696E66004E414E006E616E00300030313233343536373839414243444546003031323334353637383961626364656600496E66696E697479004E614E000000003E
:4070800000000000000000000000000000000000000000000000000000000000000000000000000000000000000000000000000000000000000000000000000000000000D0
:4070C0000000000000000000000000000000000000000000000000000000000000000000504F534958002E0005000000190000007D000000000000000080E03779C34143DD
:40710000176E05B5B5B89346F5F93FE9034F384D321D30F94877825A3CBF737FDD4F1575000000000000F03F000000000000244000000000000059400000000000408F40EC
:40714000000000000088C34000000000006AF8400000000080842E4100000000D01263410000000084D797410000000065CDCD41000000205FA00242000000E876483742F4
:40718000000000A2941A6D42000040E59C30A2420000901EC4BCD64200003426F56B0C430080E03779C3414300A0D8855734764300C84E676DC1AB43003D9160E458E143ED
:4071C000408CB5781DAF154450EFE2D6E41A4B4492D54D06CFF08044F64AE1C7022DB544B49DD9794378EA44232D302B2000686C4C00656667454647000000000000000025
:4072000000000810004002088C020000207208108C42020864060000844902084CF701000048E80100127A0000093D0000127A0000127A0008000000401F00000000A00F26
